{
  "contractName": "LiquidityLockContract",
  "abi": [
    {
      "inputs": [
        {
          "internalType": "address",
          "name": "valuingAddress",
          "type": "address"
        },
        {
          "internalType": "address",
          "name": "LPTaddress",
          "type": "address"
        },
        {
          "internalType": "address",
          "name": "uTokenAddr",
          "type": "address"
        },
        {
          "internalType": "contract UniswapV2PriceProvider",
          "name": "oracleAddress",
          "type": "address"
        }
      ],
      "stateMutability": "nonpayable",
      "type": "constructor"
    },
    {
      "anonymous": false,
      "inputs": [
        {
          "indexed": true,
          "internalType": "address",
          "name": "newAdmin",
          "type": "address"
        }
      ],
      "name": "AdminChanged",
      "type": "event"
    },
    {
      "anonymous": false,
      "inputs": [
        {
          "indexed": false,
          "internalType": "uint8",
          "name": "NewLimit",
          "type": "uint8"
        }
      ],
      "name": "BlockLimitChange",
      "type": "event"
    },
    {
      "anonymous": false,
      "inputs": [
        {
          "indexed": false,
          "internalType": "uint256",
          "name": "newRatio",
          "type": "uint256"
        }
      ],
      "name": "CREndChange",
      "type": "event"
    },
    {
      "anonymous": false,
      "inputs": [
        {
          "indexed": true,
          "internalType": "address",
          "name": "oldAdmin",
          "type": "address"
        },
        {
          "indexed": true,
          "internalType": "address",
          "name": "newAdmin",
          "type": "address"
        }
      ],
      "name": "ChangingAdmin",
      "type": "event"
    },
    {
      "anonymous": false,
      "inputs": [
        {
          "indexed": false,
          "internalType": "uint256",
          "name": "LPTAmt",
          "type": "uint256"
        },
        {
          "indexed": true,
          "internalType": "address",
          "name": "user",
          "type": "address"
        }
      ],
      "name": "LockLPT",
      "type": "event"
    },
    {
      "anonymous": false,
      "inputs": [
        {
          "indexed": false,
          "internalType": "uint8",
          "name": "percentDiff",
          "type": "uint8"
        }
      ],
      "name": "NewPercentDiff",
      "type": "event"
    },
    {
      "anonymous": false,
      "inputs": [
        {
          "indexed": true,
          "internalType": "address",
          "name": "newValueAddress",
          "type": "address"
        }
      ],
      "name": "NewValuing",
      "type": "event"
    },
    {
      "anonymous": false,
      "inputs": [
        {
          "indexed": false,
          "internalType": "address",
          "name": "account",
          "type": "address"
        }
      ],
      "name": "Paused",
      "type": "event"
    },
    {
      "anonymous": false,
      "inputs": [
        {
          "indexed": false,
          "internalType": "uint256",
          "name": "LPTAmt",
          "type": "uint256"
        },
        {
          "indexed": true,
          "internalType": "address",
          "name": "user",
          "type": "address"
        }
      ],
      "name": "UnlockLPT",
      "type": "event"
    },
    {
      "anonymous": false,
      "inputs": [
        {
          "indexed": false,
          "internalType": "address",
          "name": "account",
          "type": "address"
        }
      ],
      "name": "Unpaused",
      "type": "event"
    },
    {
      "inputs": [],
      "name": "CREnd",
      "outputs": [
        {
          "internalType": "uint256",
          "name": "",
          "type": "uint256"
        }
      ],
      "stateMutability": "view",
      "type": "function"
    },
    {
      "inputs": [],
      "name": "CRNorm",
      "outputs": [
        {
          "internalType": "uint256",
          "name": "",
          "type": "uint256"
        }
      ],
      "stateMutability": "view",
      "type": "function"
    },
    {
      "inputs": [],
      "name": "allowedPriceDelay",
      "outputs": [
        {
          "internalType": "uint256",
          "name": "",
          "type": "uint256"
        }
      ],
      "stateMutability": "view",
      "type": "function"
    },
    {
      "inputs": [],
      "name": "baseAssetAddr",
      "outputs": [
        {
          "internalType": "address",
          "name": "",
          "type": "address"
        }
      ],
      "stateMutability": "view",
      "type": "function"
    },
    {
      "inputs": [],
      "name": "blockLimit",
      "outputs": [
        {
          "internalType": "uint256",
          "name": "",
          "type": "uint256"
        }
      ],
      "stateMutability": "view",
      "type": "function"
    },
    {
      "inputs": [
        {
          "internalType": "address",
          "name": "",
          "type": "address"
        }
      ],
      "name": "nextBlock",
      "outputs": [
        {
          "internalType": "uint256",
          "name": "",
          "type": "uint256"
        }
      ],
      "stateMutability": "view",
      "type": "function"
    },
    {
      "inputs": [],
      "name": "otherAssetAddr",
      "outputs": [
        {
          "internalType": "address",
          "name": "",
          "type": "address"
        }
      ],
      "stateMutability": "view",
      "type": "function"
    },
    {
      "inputs": [],
      "name": "paused",
      "outputs": [
        {
          "internalType": "bool",
          "name": "",
          "type": "bool"
        }
      ],
      "stateMutability": "view",
      "type": "function"
    },
    {
      "inputs": [
        {
          "internalType": "uint256",
          "name": "_LPTAmt",
          "type": "uint256"
        },
        {
          "internalType": "uint256",
          "name": "_deadline",
          "type": "uint256"
        },
        {
          "internalType": "uint8",
          "name": "_v",
          "type": "uint8"
        },
        {
          "internalType": "bytes32",
          "name": "_r",
          "type": "bytes32"
        },
        {
          "internalType": "bytes32",
          "name": "_s",
          "type": "bytes32"
        },
        {
          "internalType": "uint256",
          "name": "_minTokenAmount",
          "type": "uint256"
        }
      ],
      "name": "lockLPTWithPermit",
      "outputs": [],
      "stateMutability": "nonpayable",
      "type": "function"
    },
    {
      "inputs": [
        {
          "internalType": "uint256",
          "name": "LPTAmt",
          "type": "uint256"
        },
        {
          "internalType": "uint256",
          "name": "minTokenAmount",
          "type": "uint256"
        }
      ],
      "name": "lockLPT",
      "outputs": [],
      "stateMutability": "nonpayable",
      "type": "function"
    },
    {
      "inputs": [
        {
          "internalType": "uint256",
          "name": "uTokenAmt",
          "type": "uint256"
        }
      ],
      "name": "unlockLPT",
      "outputs": [],
      "stateMutability": "nonpayable",
      "type": "function"
    },
    {
      "inputs": [
        {
          "internalType": "uint256",
          "name": "_currentLoan",
          "type": "uint256"
        },
        {
          "internalType": "uint256",
          "name": "_uTokenAmt",
          "type": "uint256"
        }
      ],
      "name": "getLPTokensToReturn",
      "outputs": [
        {
          "internalType": "uint256",
          "name": "_LPTokenToReturn",
          "type": "uint256"
        }
      ],
      "stateMutability": "nonpayable",
      "type": "function"
    },
    {
      "inputs": [
        {
          "internalType": "address",
          "name": "account",
          "type": "address"
        }
      ],
      "name": "tokensLocked",
      "outputs": [
        {
          "internalType": "uint256",
          "name": "",
          "type": "uint256"
        }
      ],
      "stateMutability": "view",
      "type": "function"
    },
    {
      "inputs": [],
      "name": "pair",
      "outputs": [
        {
          "internalType": "address",
          "name": "LPAddr",
          "type": "address"
        }
      ],
      "stateMutability": "view",
      "type": "function"
    },
    {
      "inputs": [],
      "name": "setPause",
      "outputs": [],
      "stateMutability": "nonpayable",
      "type": "function"
    },
    {
      "inputs": [],
      "name": "setUnpause",
      "outputs": [],
      "stateMutability": "nonpayable",
      "type": "function"
    },
    {
      "inputs": [
        {
          "internalType": "uint8",
          "name": "newLimit",
          "type": "uint8"
        }
      ],
      "name": "setBlockLimit",
      "outputs": [],
      "stateMutability": "nonpayable",
      "type": "function"
    },
    {
      "inputs": [
        {
          "internalType": "uint256",
          "name": "ratio",
          "type": "uint256"
        }
      ],
      "name": "setCREnd",
      "outputs": [],
      "stateMutability": "nonpayable",
      "type": "function"
    },
    {
      "inputs": [
        {
          "internalType": "address",
          "name": "_tokenAddr",
          "type": "address"
        },
        {
          "internalType": "address",
          "name": "to",
          "type": "address"
        }
      ],
      "name": "claimTokens",
      "outputs": [],
      "stateMutability": "nonpayable",
      "type": "function"
    },
    {
      "inputs": [],
      "name": "isOwner",
      "outputs": [
        {
          "internalType": "bool",
          "name": "",
          "type": "bool"
        }
      ],
      "stateMutability": "view",
      "type": "function"
    },
    {
      "inputs": [
        {
          "internalType": "address",
          "name": "_newOwner",
          "type": "address"
        }
      ],
      "name": "setOwner",
      "outputs": [],
      "stateMutability": "nonpayable",
      "type": "function"
    },
    {
      "inputs": [],
      "name": "claimOwner",
      "outputs": [],
      "stateMutability": "nonpayable",
      "type": "function"
    },
    {
      "inputs": [
        {
          "internalType": "address",
          "name": "_newValuing",
          "type": "address"
        }
      ],
      "name": "setValuingAddress",
      "outputs": [],
      "stateMutability": "nonpayable",
      "type": "function"
    }
  ],
  "bytecode": "0x60806040526001805460ff60a01b19169055670de0b6b3a7640000600e5534801561002957600080fd5b506040516119fd3803806119fd8339818101604052608081101561004c57600080fd5b508051602082015160408301516060909301516000805433610100026001600160a81b0319909116179055600780546001600160a01b039485166001600160a01b03199182161790915560088054938516938216939093179092556009805494841694831694909417909355600a600455614e20600555612710600655600d8054929093169116179055611918806100e56000396000f3fe608060405234801561001057600080fd5b506004361061014d5760003560e01c80635c975abb116100c3578063acc99b371161007c578063acc99b3714610304578063d331220614610342578063d431b1ac14610365578063e75816cf1461036d578063e89c422914610375578063f3bcd237146103925761014d565b80635c975abb1461027c57806369ffa08a146102985780637606ff19146102c6578063848cb5c6146102ec5780638f32d59b146102f4578063a8aa1b31146102fc5761014d565b806323e8d9c11161011557806323e8d9c1146101fd5780632a9c92571461022157806339c8fab9146102295780633bd1adec1461024c5780633c561ce1146102545780633e7edd6e146102745761014d565b806301a598a61461015257806304b7c7a41461018a578063097ce033146101b257806313af4035146101ba5780631fa1a491146101e0575b600080fd5b6101786004803603602081101561016857600080fd5b50356001600160a01b031661039a565b60408051918252519081900360200190f35b6101b0600480360360208110156101a057600080fd5b50356001600160a01b03166103b5565b005b6101786104a1565b6101b0600480360360208110156101d057600080fd5b50356001600160a01b03166104a7565b6101b0600480360360208110156101f657600080fd5b5035610548565b6102056108f5565b604080516001600160a01b039092168252519081900360200190f35b610178610904565b6101b06004803603604081101561023f57600080fd5b508035906020013561090a565b6101b0610acb565b6101b06004803603602081101561026a57600080fd5b503560ff16610be2565b610205610cbf565b610284610cce565b604080519115158252519081900360200190f35b6101b0600480360360408110156102ae57600080fd5b506001600160a01b0381358116916020013516610cd7565b610178600480360360208110156102dc57600080fd5b50356001600160a01b0316610ec3565b6101b0610ed5565b610284610f26565b610205610f3c565b6101b0600480360360c081101561031a57600080fd5b5080359060208101359060ff6040820135169060608101359060808101359060a00135610f4b565b6101786004803603604081101561035857600080fd5b508035906020013561110f565b6101b0611290565b6101786112df565b6101b06004803603602081101561038b57600080fd5b50356112e5565b6101786113b0565b6001600160a01b031660009081526002602052604090205490565b6103bd610f26565b6103fc576040805162461bcd60e51b815260206004820181905260248201526000805160206118c3833981519152604482015290519081900360640190fd5b6001600160a01b038116610457576040805162461bcd60e51b815260206004820152601a60248201527f43616e6e6f74206368616e676520746f20302061646472657373000000000000604482015290519081900360640190fd5b600780546001600160a01b0319166001600160a01b0383169081179091556040517f264d8631281a377dc6d11b2425e2374dda3199cf4653a128c33d5a2aa0c0d81f90600090a250565b60055481565b6104af610f26565b6104ee576040805162461bcd60e51b815260206004820181905260248201526000805160206118c3833981519152604482015290519081900360640190fd5b6001805460ff60a01b196001600160a01b0384166001600160a01b0319909216821716600160a01b1790915560405133907f94e450f29e5604cdd3f28d7f798cceba84c415897226a242583aced8368a6d3890600090a350565b610550610cce565b15610595576040805162461bcd60e51b815260206004820152601060248201526f14185d5cd8589b194e881c185d5cd95960821b604482015290519081900360640190fd5b600081116105e2576040805162461bcd60e51b815260206004820152601560248201527443616e6e6f7420756e6c6f636b206e6f7468696e6760581b604482015290519081900360640190fd5b3360009081526003602052604090205443101561063c576040805162461bcd60e51b8152602060048201526013602482015272131310ce881d5cd95c881b5d5cdd081dd85a5d606a1b604482015290519081900360640190fd5b60045461064a9043906113b6565b33600081815260036020908152604080832094909455600954845162d5a77160e41b81526004810194909452306024850152935191936001600160a01b031692630d5a77109260448083019392829003018186803b1580156106ab57600080fd5b505afa1580156106bf573d6000803e3d6000fd5b505050506040513d60208110156106d557600080fd5b505190508181101561072e576040805162461bcd60e51b815260206004820152601d60248201527f496e73756666696369656e74206c6971756964697479206c6f636b6564000000604482015290519081900360640190fd5b60008282141561074e57503360009081526002602052604090205461075b565b610758828461110f565b90505b600754604080516332ddf64f60e21b81526004810186905233602482015290516001600160a01b039092169163cb77d93c9160448082019260009290919082900301818387803b1580156107ae57600080fd5b505af11580156107c2573d6000803e3d6000fd5b5050336000908152600260205260409020546107e19250905082611417565b33600081815260026020908152604080832094909455600854845163a9059cbb60e01b815260048101949094526024840186905293516001600160a01b039094169363a9059cbb93604480820194918390030190829087803b15801561084657600080fd5b505af115801561085a573d6000803e3d6000fd5b505050506040513d602081101561087057600080fd5b50516108ba576040805162461bcd60e51b8152602060048201526014602482015273131310ce88151c985b9cd9995c8811985a5b195960621b604482015290519081900360640190fd5b60408051828152905133917fb93ee4c07ca93b1f961d37c044127a9394591a038abbf4cc8df9ad7e3a86f3b8919081900360200190a2505050565b600c546001600160a01b031681565b600a5481565b610912610cce565b15610957576040805162461bcd60e51b815260206004820152601060248201526f14185d5cd8589b194e881c185d5cd95960821b604482015290519081900360640190fd5b60006109e9600e546109e3600d60009054906101000a90046001600160a01b03166001600160a01b03166350d25bcd6040518163ffffffff1660e01b815260040160206040518083038186803b1580156109b057600080fd5b505afa1580156109c4573d6000803e3d6000fd5b505050506040513d60208110156109da57600080fd5b50518690611474565b906114cd565b90506109f483611534565b33600090815260026020526040902054610a0e90846113b6565b3360008181526002602052604080822093909355600754835163da4e4a1160e01b81526004810186905260248101939093526044830186905292516001600160a01b039093169263da4e4a1192606480820193929182900301818387803b158015610a7857600080fd5b505af1158015610a8c573d6000803e3d6000fd5b50506040805186815290513393507f07da411218fd637b3b062fcc41aad73f05aff3c93d7397e16852dcbd1daf0d5e92509081900360200190a2505050565b600154600160a01b900460ff16610b29576040805162461bcd60e51b815260206004820152601a60248201527f4368616e676520776173206e6f7420696e697469616c697a6564000000000000604482015290519081900360640190fd5b6001546001600160a01b03163314610b88576040805162461bcd60e51b815260206004820152601960248201527f596f7520617265206e6f742070656e64696e67206f776e657200000000000000604482015290519081900360640190fd5b6001805460008054610100600160a81b0319166101006001600160a01b0384160217815560ff60a01b1990911690915560405133917f7ce7ec0b50378fb6c0186ffb5f48325f6593fcb4ca4386f21861af3129188f5c91a2565b610bea610f26565b610c29576040805162461bcd60e51b815260206004820181905260248201526000805160206118c3833981519152604482015290519081900360640190fd5b60008160ff1611610c81576040805162461bcd60e51b815260206004820152601760248201527f426c6f636b204c696d69742063616e6e6f742062652030000000000000000000604482015290519081900360640190fd5b60ff8116600481905560408051918252517f1fc7508a929e0ca95918d3d73eb140e0da637a913d31542bf1efc3aeeb289d929181900360200190a150565b600b546001600160a01b031681565b60005460ff1690565b610cdf610f26565b610d1e576040805162461bcd60e51b815260206004820181905260248201526000805160206118c3833981519152604482015290519081900360640190fd5b6008546001600160a01b0383811691161415610d79576040805162461bcd60e51b815260206004820152601560248201527443616e6e6f74206d6f7665204c5020746f6b656e7360581b604482015290519081900360640190fd5b6000826001600160a01b03166370a08231306040518263ffffffff1660e01b815260040180826001600160a01b0316815260200191505060206040518083038186803b158015610dc857600080fd5b505afa158015610ddc573d6000803e3d6000fd5b505050506040513d6020811015610df257600080fd5b50516040805163a9059cbb60e01b81526001600160a01b0385811660048301526024820184905291519293509085169163a9059cbb916044808201926020929091908290030181600087803b158015610e4a57600080fd5b505af1158015610e5e573d6000803e3d6000fd5b505050506040513d6020811015610e7457600080fd5b5051610ebe576040805162461bcd60e51b8152602060048201526014602482015273131310ce88151c985b9cd9995c8811985a5b195960621b604482015290519081900360640190fd5b505050565b60036020526000908152604090205481565b610edd610f26565b610f1c576040805162461bcd60e51b815260206004820181905260248201526000805160206118c3833981519152604482015290519081900360640190fd5b610f2461160e565b565b60005461010090046001600160a01b0316331490565b6008546001600160a01b031690565b610f53610cce565b15610f98576040805162461bcd60e51b815260206004820152601060248201526f14185d5cd8589b194e881c185d5cd95960821b604482015290519081900360640190fd5b6000611024600e546109e3600d60009054906101000a90046001600160a01b03166001600160a01b03166350d25bcd6040518163ffffffff1660e01b815260040160206040518083038186803b158015610ff157600080fd5b505afa158015611005573d6000803e3d6000fd5b505050506040513d602081101561101b57600080fd5b50518a90611474565b90506110343388888888886116ae565b3360009081526002602052604090205461104e90886113b6565b3360008181526002602052604080822093909355600754835163da4e4a1160e01b81526004810186905260248101939093526044830186905292516001600160a01b039093169263da4e4a1192606480820193929182900301818387803b1580156110b857600080fd5b505af11580156110cc573d6000803e3d6000fd5b5050604080518a815290513393507f07da411218fd637b3b062fcc41aad73f05aff3c93d7397e16852dcbd1daf0d5e92509081900360200190a250505050505050565b600080611198600e54600d60009054906101000a90046001600160a01b03166001600160a01b03166350d25bcd6040518163ffffffff1660e01b815260040160206040518083038186803b15801561116657600080fd5b505afa15801561117a573d6000803e3d6000fd5b505050506040513d602081101561119057600080fd5b5051906114cd565b33600090815260026020526040812054919250906111cb9086906109e3906103e8906111c5908790611474565b90611474565b90506000816111f46006546109e3683635c9adc5dea0000060055461147490919063ffffffff16565b1161122057336000908152600260205260409020546112199087906109e39088611474565b9050611286565b3360009081526002602052604081205461123b908590611474565b905060006112498888611417565b905060006112686006546109e38460055461147490919063ffffffff16565b9050611278866109e38584611417565b965061128a95505050505050565b5050505b92915050565b611298610f26565b6112d7576040805162461bcd60e51b815260206004820181905260248201526000805160206118c3833981519152604482015290519081900360640190fd5b610f2461181e565b60065481565b6112ed610f26565b61132c576040805162461bcd60e51b815260206004820181905260248201526000805160206118c3833981519152604482015290519081900360640190fd5b60008111611375576040805162461bcd60e51b81526020600482015260116024820152700526174696f2063616e6e6f74206265203607c1b604482015290519081900360640190fd5b60058190556040805182815290517f9b8456037ebf7563c7b6bfef3f89ee0fb563a1134f0107a07b8c071c7523829a9181900360200190a150565b60045481565b600082820183811015611410576040805162461bcd60e51b815260206004820152601b60248201527f536166654d6174683a206164646974696f6e206f766572666c6f770000000000604482015290519081900360640190fd5b9392505050565b60008282111561146e576040805162461bcd60e51b815260206004820152601e60248201527f536166654d6174683a207375627472616374696f6e206f766572666c6f770000604482015290519081900360640190fd5b50900390565b6000826114835750600061128a565b8282028284828161149057fe5b04146114105760405162461bcd60e51b81526004018080602001828103825260218152602001806118a26021913960400191505060405180910390fd5b6000808211611523576040805162461bcd60e51b815260206004820152601a60248201527f536166654d6174683a206469766973696f6e206279207a65726f000000000000604482015290519081900360640190fd5b81838161152c57fe5b049392505050565b600854604080516323b872dd60e01b81523360048201523060248201526044810184905290516001600160a01b03909216916323b872dd916064808201926020929091908290030181600087803b15801561158e57600080fd5b505af11580156115a2573d6000803e3d6000fd5b505050506040513d60208110156115b857600080fd5b505161160b576040805162461bcd60e51b815260206004820152601860248201527f4c4c433a20547261736665722046726f6d206661696c65640000000000000000604482015290519081900360640190fd5b50565b611616610cce565b61165e576040805162461bcd60e51b815260206004820152601460248201527314185d5cd8589b194e881b9bdd081c185d5cd95960621b604482015290519081900360640190fd5b6000805460ff191690557f5db9ee0a495bf2e6ff9c91a7834c1ba4fdd244a5e8aa4e537bd38aeae4b073aa61169161189d565b604080516001600160a01b039092168252519081900360200190a1565b6008546040805163d505accf60e01b81526001600160a01b038981166004830152306024830152604482018990526064820188905260ff8716608483015260a4820186905260c482018590529151919092169163d505accf9160e480830192600092919082900301818387803b15801561172757600080fd5b505af115801561173b573d6000803e3d6000fd5b5050600854604080516323b872dd60e01b8152336004820152306024820152604481018a905290516001600160a01b0390921693506323b872dd92506064808201926020929091908290030181600087803b15801561179957600080fd5b505af11580156117ad573d6000803e3d6000fd5b505050506040513d60208110156117c357600080fd5b5051611816576040805162461bcd60e51b815260206004820152601960248201527f4c4c433a205472616e736665722046726f6d206661696c656400000000000000604482015290519081900360640190fd5b505050505050565b611826610cce565b1561186b576040805162461bcd60e51b815260206004820152601060248201526f14185d5cd8589b194e881c185d5cd95960821b604482015290519081900360640190fd5b6000805460ff191660011790557f62e78cea01bee320cd4e420270b5ea74000d11b0c9f74754ebdbfc544b05a2586116915b339056fe536166654d6174683a206d756c7469706c69636174696f6e206f766572666c6f774f776e61626c653a2063616c6c6572206973206e6f7420746865206f776e6572a26469706673582212209522603d6fe5ffda95661be1616f21632de7a1ade246ae0e231c360b137081c264736f6c63430007050033",
  "immutableReferences": {},
  "source": "// SPDX-License-Identifier: UNLICENSED\npragma solidity 0.7.5;\n\nimport \"@openzeppelin/contracts/math/SafeMath.sol\";\nimport \"@openzeppelin/contracts/utils/Address.sol\";\nimport \"@openzeppelin/contracts/utils/Pausable.sol\";\n\n// Interfaces\nimport \"@uniswap/v2-core/contracts/interfaces/IUniswapV2Factory.sol\";\nimport \"../Interfaces/IUniswapV2Pair.sol\";\nimport \"../Interfaces/IValuing_01.sol\";\nimport \"../Interfaces/IUnboundToken.sol\";\nimport \"../Interfaces/IERC20.sol\";\n\nimport \"./Oracle.sol\";\n\n// ---------------------------------------------------------------------------------------\n//                                Liquidity Lock Contract V1\n//\n//                                for erc20/erc20 pairs\n// ---------------------------------------------------------------------------------------\n// This contract enables the user to take out a loan using their existing liquidity\n// pool tokens (from the associated liquidity pool) as collateral. The loan is issued\n// in the form of the uToken token which carries a peg to the baseAsset.\n//\n// This contract can be used as a factory to enable multiple liquidity pools access\n// to mint uTokens. At this time, the Unbound protocol requires one of the reserve tokens\n// in the liquidity pool to be a supported by Unbound as uToken.\n//\n// In V1, we offer the ability to take out a loan after giving permission to the LLC\n// to \"transferFrom\", as well as an option utilizing the permit() function from within\n// the uniswap liquidity pool contract.\n//\n// This is the main contract that the user will interact with. It is connected to Valuing,\n// and then the uToken mint functions. Upon deployment of the LLC, its address must first be\n// registered with the valuing contract. This can only be completed by the owner (or\n// eventually a DAO).\n// ----------------------------------------------------------------------------------------\ncontract LiquidityLockContract is Pausable {\n    using SafeMath for uint256;\n    // using Address for address;\n\n    // lockLPTEvent\n    event LockLPT(uint256 LPTAmt, address indexed user);\n\n    // unlockLPTEvent\n    event UnlockLPT(uint256 LPTAmt, address indexed user);\n\n    // Admin Change in-prog\n    event ChangingAdmin(address indexed oldAdmin, address indexed newAdmin);\n\n    // Admin Changed\n    event AdminChanged(address indexed newAdmin);\n\n    // Admin Events\n    event BlockLimitChange(uint8 NewLimit);\n    event CREndChange(uint256 newRatio);\n    event NewPercentDiff(uint8 percentDiff);\n    event NewValuing(address indexed newValueAddress);\n\n    //Owner Address\n    address private _owner;\n\n    // 2-step owner change variables\n    address private _ownerPending;\n    bool private _isPending = false;\n\n    // tokens locked by users\n    mapping(address => uint256) _tokensLocked;\n\n    // next block that user can make an action in\n    mapping(address => uint256) public nextBlock;\n    uint256 public blockLimit;\n\n    // Collateralization Ratio End\n    uint256 public CREnd;\n\n    // Collateralization Multiplier\n    uint256 public CRNorm;\n\n    // Interfaced Contracts\n    IValuing_01 private valuingContract;\n    IUniswapV2Pair private LPTContract;\n    IUnboundToken private unboundContract;\n\n    uint256 public allowedPriceDelay;\n\n    address public baseAssetAddr;\n    address public otherAssetAddr;\n\n    UniswapV2PriceProvider oracle;\n\n    uint256 base = 1000000000000000000;\n\n    // Modifiers\n    modifier onlyOwner() {\n        require(isOwner(), \"Ownable: caller is not the owner\");\n        _;\n    }\n\n    // Constructor - must provide valuing contract address, the associated Liquidity pool address (i.e. eth/dai uniswap pool token address),\n    //               and the address of the baseAsset in the uniswap pair.\n    constructor(\n        address valuingAddress,\n        address LPTaddress,\n        address uTokenAddr,\n        UniswapV2PriceProvider oracleAddress\n    ) {\n        _owner = msg.sender;\n\n        // initiates interfacing contracts\n        valuingContract = IValuing_01(valuingAddress);\n        LPTContract = IUniswapV2Pair(LPTaddress);\n        unboundContract = IUnboundToken(uTokenAddr);\n\n        // set block limit (10 by default)\n        blockLimit = 10;\n\n        // set Collateralization Ratio\n        CREnd = 20000;\n\n        // set Collaterization Normalization\n        CRNorm = 10000;\n\n        // set oracle\n        oracle = oracleAddress;\n\n    }\n\n    // calls transfer only, for use with non-permit lock function\n    function transferLPT(uint256 amount) internal {\n        require(LPTContract.transferFrom(msg.sender, address(this), amount), \"LLC: Trasfer From failed\");\n    }\n\n    // calls permit, then transfer\n    function transferLPTPermit(\n        address user,\n        uint256 amount,\n        uint256 deadline,\n        uint8 v,\n        bytes32 r,\n        bytes32 s\n    ) internal {\n        LPTContract.permit(user, address(this), amount, deadline, v, r, s);\n        require(LPTContract.transferFrom(msg.sender, address(this), amount), \"LLC: Transfer From failed\");\n    }\n\n    function lockLPTWithPermit(\n        uint256 _LPTAmt,\n        uint256 _deadline,\n        uint8 _v,\n        bytes32 _r,\n        bytes32 _s,\n        uint256 _minTokenAmount\n    ) public whenNotPaused {\n        uint256 LPTValueInDai = _LPTAmt.mul(uint256(oracle.latestAnswer())).div(base);\n\n        // call Permit and Transfer\n        transferLPTPermit(msg.sender, _LPTAmt, _deadline, _v, _r, _s);\n\n        // map locked tokens to user address\n        _tokensLocked[msg.sender] = _tokensLocked[msg.sender].add(_LPTAmt);\n\n        // Call Valuing Contract\n        valuingContract.unboundCreate(LPTValueInDai, msg.sender, _minTokenAmount); // Hardcode \"0\" for AAA rating\n\n        // emit lockLPT event\n        emit LockLPT(_LPTAmt, msg.sender);\n    }\n\n    // Requires approval first (permit excluded for simplicity)\n    function lockLPT(uint256 LPTAmt, uint256 minTokenAmount) public whenNotPaused {\n        uint256 LPTValueInDai = LPTAmt.mul(uint256(oracle.latestAnswer())).div(base);\n\n        // transfer LPT to the address\n        transferLPT(LPTAmt);\n\n        // map locked tokens to user address\n        _tokensLocked[msg.sender] = _tokensLocked[msg.sender].add(LPTAmt);\n\n        // Call Valuing Contract\n        valuingContract.unboundCreate(LPTValueInDai, msg.sender, minTokenAmount);\n\n        // emit lockLPT event\n        emit LockLPT(LPTAmt, msg.sender);\n    }\n\n    // Burn Path\n    //\n    // allows for partial loan payment by using the ratio of LPtokens to unlock and total LPtokens locked\n    function unlockLPT(uint256 uTokenAmt) public whenNotPaused {\n        require(uTokenAmt > 0, \"Cannot unlock nothing\");\n        require(nextBlock[msg.sender] <= block.number, \"LLC: user must wait\");\n\n        // sets nextBlock\n        nextBlock[msg.sender] = block.number.add(blockLimit);\n\n        // get current amount of uToken Loan\n        uint256 currentLoan = unboundContract.checkLoan(msg.sender, address(this));\n\n        // Make sure uToken to pay back is less than or equal to total owed.\n        require(currentLoan >= uTokenAmt, \"Insufficient liquidity locked\");\n\n        // check if repayment is partial or full\n        uint256 LPTokenToReturn;\n        if (currentLoan == uTokenAmt) {\n            LPTokenToReturn = _tokensLocked[msg.sender];\n        } else {\n            LPTokenToReturn = getLPTokensToReturn(currentLoan, uTokenAmt);\n            // LPTokenToReturn = uint256(10000000000000000000)\n        }\n\n        // Burning of uToken will happen first\n        valuingContract.unboundRemove(uTokenAmt, msg.sender);\n\n        // update mapping\n        _tokensLocked[msg.sender] = _tokensLocked[msg.sender].sub(LPTokenToReturn);\n\n        // send LP tokens back to user\n        require(LPTContract.transfer(msg.sender, LPTokenToReturn), \"LLC: Transfer Failed\");\n\n        emit UnlockLPT(LPTokenToReturn, msg.sender);\n    }\n\n    \n\n    function getLPTokensToReturn(uint256 _currentLoan, uint256 _uTokenAmt) public  returns (uint256 _LPTokenToReturn) {\n        uint256 valueOfSingleLPT = uint256(oracle.latestAnswer()).div(base);\n        \n        // // get current CR Ratio\n        uint256 CRNow = (valueOfSingleLPT.mul(_tokensLocked[msg.sender])).mul(1000).div(_currentLoan);\n        \n        uint256 _LPTokenToReturn;\n        // multiply by 21 (adding 3 to 18), to account for the multiplication by 1000 above.\n        if (CREnd.mul(10**21).div(CRNorm) <= CRNow) {\n            // LPT to send back. This number should have 18 decimals\n            _LPTokenToReturn = (_tokensLocked[msg.sender].mul(_uTokenAmt)).div(_currentLoan);\n        } else {\n            // value of users locked LP before paying loan\n            uint256 valueStart = valueOfSingleLPT.mul(_tokensLocked[msg.sender]);\n\n            uint256 loanAfter = _currentLoan.sub(_uTokenAmt);\n            // _LPTokenToReturn = valueStart.sub(valueAfter).div(valueOfSingleLPT);\n\n            // Value After - Collateralization Ratio times LoanAfter (divided by CRNorm, then normalized with valueOfSingleLPT)\n            uint256 valueAfter = CREnd.mul(loanAfter).div(CRNorm);\n\n            // LPT to send back. This number should have 18 decimals\n            _LPTokenToReturn = valueStart.sub(valueAfter).div(valueOfSingleLPT);\n\n            return _LPTokenToReturn;\n        }\n    }\n\n    function tokensLocked(address account) public view returns (uint256) {\n        return _tokensLocked[account];\n    }\n\n    function pair() external view returns (address LPAddr) {\n        LPAddr = address(LPTContract);\n    }\n\n    // onlyOwner Functions\n\n    function setPause() public onlyOwner {\n        _pause();\n    }\n\n    function setUnpause() public onlyOwner {\n        _unpause();\n    }\n\n    function setBlockLimit(uint8 newLimit) public onlyOwner {\n        require(newLimit > 0, \"Block Limit cannot be 0\");\n        blockLimit = newLimit;\n        emit BlockLimitChange(newLimit);\n    }\n\n    // set collateralization Ratio. 1 = CRNorm\n    function setCREnd(uint256 ratio) public onlyOwner {\n        require(ratio > 0, \"Ratio cannot be 0\");\n        CREnd = ratio;\n        emit CREndChange(ratio);\n    }\n\n    // // change allowedPriceDelay\n    // function setAllowedPriceDelay(uint256 allowedDelay) public onlyOwner {\n    //     require(allowedDelay > 0, \"cannot set zero delay\");\n    //     allowedPriceDelay = allowedDelay;\n    // }\n\n    // // set Max Percent Difference\n    // function setMaxPercentDifference(uint8 amount) public onlyOwner {\n    //     require(amount <= 100, \"Max percentage difference cannot be greater than 100\");\n    //     maxPercentDiff = amount;\n    //     emit NewPercentDiff(amount);\n    // }\n\n    // Claim - remove any airdropped tokens\n    // currently sends all tokens to \"to\" address (in param)\n    function claimTokens(address _tokenAddr, address to) public onlyOwner {\n        require(_tokenAddr != address(LPTContract), \"Cannot move LP tokens\");\n        uint256 tokenBal = IERC20_2(_tokenAddr).balanceOf(address(this));\n        require(IERC20_2(_tokenAddr).transfer(to, tokenBal), \"LLC: Transfer Failed\");\n    }\n\n    // Checks if sender is owner\n    function isOwner() public view returns (bool) {\n        return msg.sender == _owner;\n    }\n\n    // Changes owner (part 1)\n    function setOwner(address _newOwner) public onlyOwner {\n        _ownerPending = _newOwner;\n        _isPending = true;\n        emit ChangingAdmin(msg.sender, _newOwner);\n    }\n\n    // changes owner (part 2)\n    function claimOwner() public {\n        require(_isPending, \"Change was not initialized\");\n        require(_ownerPending == msg.sender, \"You are not pending owner\");\n        _owner = _ownerPending;\n        _isPending = false;\n        emit AdminChanged(msg.sender);\n    }\n\n    // Sets new Valuing Address\n    function setValuingAddress(address _newValuing) public onlyOwner {\n        require(_newValuing != address(0), \"Cannot change to 0 address\");\n        valuingContract = IValuing_01(_newValuing);\n        emit NewValuing(_newValuing);\n    }\n}\n",
  "sourcePath": "/Users/tomohiro/Documents/Projects/unbound/UnboundContracts/contracts/LiquidityLockContracts/LiquidityLockContract.sol",
  "compiler": {
    "name": "solc",
    "version": "0.7.5+commit.eb77ed08.Emscripten.clang"
  },
  "schemaVersion": "3.3.2",
  "updatedAt": "2021-04-11T20:26:08.373Z",
  "devdoc": {
    "kind": "dev",
    "methods": {
      "paused()": {
        "details": "Returns true if the contract is paused, and false otherwise."
      }
    },
    "version": 1
  },
  "userdoc": {
    "kind": "user",
    "methods": {},
    "version": 1
  }
}