{
  "contractName": "LLC_EthDai",
  "abi": [
    {
      "inputs": [
        {
          "internalType": "address",
          "name": "valuingAddress",
          "type": "address"
        },
        {
          "internalType": "address",
          "name": "LPTaddress",
          "type": "address"
        },
        {
          "internalType": "address",
          "name": "baseAsset",
          "type": "address"
        }
      ],
      "stateMutability": "nonpayable",
      "type": "constructor"
    },
    {
      "anonymous": false,
      "inputs": [
        {
          "indexed": false,
          "internalType": "bool",
          "name": "position",
          "type": "bool"
        }
      ],
      "name": "KillSwitch",
      "type": "event"
    },
    {
      "anonymous": false,
      "inputs": [
        {
          "indexed": false,
          "internalType": "uint256",
          "name": "LPTamt",
          "type": "uint256"
        },
        {
          "indexed": true,
          "internalType": "address",
          "name": "user",
          "type": "address"
        }
      ],
      "name": "LockLPT",
      "type": "event"
    },
    {
      "anonymous": false,
      "inputs": [
        {
          "indexed": false,
          "internalType": "uint256",
          "name": "LPTamt",
          "type": "uint256"
        },
        {
          "indexed": true,
          "internalType": "address",
          "name": "user",
          "type": "address"
        }
      ],
      "name": "UnlockLPT",
      "type": "event"
    },
    {
      "inputs": [],
      "name": "_lastBlockUpdate",
      "outputs": [
        {
          "internalType": "uint256",
          "name": "",
          "type": "uint256"
        }
      ],
      "stateMutability": "view",
      "type": "function"
    },
    {
      "inputs": [],
      "name": "_oldPriceCumulativeLast",
      "outputs": [
        {
          "internalType": "uint256",
          "name": "",
          "type": "uint256"
        }
      ],
      "stateMutability": "view",
      "type": "function"
    },
    {
      "inputs": [],
      "name": "_oldTimeStamp",
      "outputs": [
        {
          "internalType": "uint256",
          "name": "",
          "type": "uint256"
        }
      ],
      "stateMutability": "view",
      "type": "function"
    },
    {
      "inputs": [],
      "name": "_position",
      "outputs": [
        {
          "internalType": "uint8",
          "name": "",
          "type": "uint8"
        }
      ],
      "stateMutability": "view",
      "type": "function"
    },
    {
      "inputs": [],
      "name": "_timeToUpdate",
      "outputs": [
        {
          "internalType": "uint256",
          "name": "",
          "type": "uint256"
        }
      ],
      "stateMutability": "view",
      "type": "function"
    },
    {
      "inputs": [],
      "name": "baseAssetDecimal",
      "outputs": [
        {
          "internalType": "uint8",
          "name": "",
          "type": "uint8"
        }
      ],
      "stateMutability": "view",
      "type": "function"
    },
    {
      "inputs": [],
      "name": "killSwitch",
      "outputs": [
        {
          "internalType": "bool",
          "name": "",
          "type": "bool"
        }
      ],
      "stateMutability": "view",
      "type": "function"
    },
    {
      "inputs": [],
      "name": "maxPercentDiff",
      "outputs": [
        {
          "internalType": "uint8",
          "name": "",
          "type": "uint8"
        }
      ],
      "stateMutability": "view",
      "type": "function"
    },
    {
      "inputs": [],
      "name": "pair",
      "outputs": [
        {
          "internalType": "address",
          "name": "",
          "type": "address"
        }
      ],
      "stateMutability": "view",
      "type": "function"
    },
    {
      "inputs": [
        {
          "internalType": "uint256",
          "name": "LPTamt",
          "type": "uint256"
        },
        {
          "internalType": "uint256",
          "name": "deadline",
          "type": "uint256"
        },
        {
          "internalType": "uint8",
          "name": "v",
          "type": "uint8"
        },
        {
          "internalType": "bytes32",
          "name": "r",
          "type": "bytes32"
        },
        {
          "internalType": "bytes32",
          "name": "s",
          "type": "bytes32"
        },
        {
          "internalType": "uint256",
          "name": "minTokenAmount",
          "type": "uint256"
        }
      ],
      "name": "lockLPTWithPermit",
      "outputs": [],
      "stateMutability": "nonpayable",
      "type": "function"
    },
    {
      "inputs": [
        {
          "internalType": "uint256",
          "name": "LPTamt",
          "type": "uint256"
        },
        {
          "internalType": "uint256",
          "name": "minTokenAmount",
          "type": "uint256"
        }
      ],
      "name": "lockLPT",
      "outputs": [],
      "stateMutability": "nonpayable",
      "type": "function"
    },
    {
      "inputs": [],
      "name": "updateOracle",
      "outputs": [],
      "stateMutability": "nonpayable",
      "type": "function"
    },
    {
      "inputs": [
        {
          "internalType": "uint256",
          "name": "LPToken",
          "type": "uint256"
        }
      ],
      "name": "unlockLPT",
      "outputs": [],
      "stateMutability": "nonpayable",
      "type": "function"
    },
    {
      "inputs": [
        {
          "internalType": "address",
          "name": "account",
          "type": "address"
        }
      ],
      "name": "tokensLocked",
      "outputs": [
        {
          "internalType": "uint256",
          "name": "",
          "type": "uint256"
        }
      ],
      "stateMutability": "view",
      "type": "function"
    },
    {
      "inputs": [
        {
          "internalType": "uint8",
          "name": "amount",
          "type": "uint8"
        }
      ],
      "name": "setMaxPercentDifference",
      "outputs": [],
      "stateMutability": "nonpayable",
      "type": "function"
    },
    {
      "inputs": [
        {
          "internalType": "address",
          "name": "_tokenAddr",
          "type": "address"
        },
        {
          "internalType": "address",
          "name": "to",
          "type": "address"
        }
      ],
      "name": "claimTokens",
      "outputs": [],
      "stateMutability": "nonpayable",
      "type": "function"
    },
    {
      "inputs": [],
      "name": "disableLock",
      "outputs": [],
      "stateMutability": "nonpayable",
      "type": "function"
    },
    {
      "inputs": [],
      "name": "isOwner",
      "outputs": [
        {
          "internalType": "bool",
          "name": "",
          "type": "bool"
        }
      ],
      "stateMutability": "view",
      "type": "function"
    },
    {
      "inputs": [
        {
          "internalType": "address",
          "name": "_newOwner",
          "type": "address"
        }
      ],
      "name": "setOwner",
      "outputs": [],
      "stateMutability": "nonpayable",
      "type": "function"
    },
    {
      "inputs": [
        {
          "internalType": "address",
          "name": "_newValuing",
          "type": "address"
        }
      ],
      "name": "setValuingAddress",
      "outputs": [],
      "stateMutability": "nonpayable",
      "type": "function"
    }
  ],
  "bytecode": "0x60806040523480156200001157600080fd5b5060405162001d8d38038062001d8d833981810160405260608110156200003757600080fd5b50805160208083015160409384015160008054610e10600655600880546001600160a01b038089166001600160a01b03199283161790925560098054838816908316811791829055600a805485891690851617905560ff60a01b1994831633179490941685556001805490921690931790558751630dfe168160e01b815297519697949693959294911692630dfe168192600480840193919291829003018186803b158015620000e657600080fd5b505afa158015620000fb573d6000803e3d6000fd5b505050506040513d60208110156200011257600080fd5b50516009546040805163d21220a760e01b815290519293506000926001600160a01b039092169163d21220a791600480820192602092909190829003018186803b1580156200016057600080fd5b505afa15801562000175573d6000803e3d6000fd5b505050506040513d60208110156200018c57600080fd5b5051600a546040805163313ce56760e01b815290519293506001600160a01b039091169163313ce56791600480820192602092909190829003018186803b158015620001d757600080fd5b505afa158015620001ec573d6000803e3d6000fd5b505050506040513d60208110156200020357600080fd5b50516003805460ff9092166101000261ff00199092169190911790556001600160a01b0383811690831614806200024b5750806001600160a01b0316836001600160a01b0316145b62000287576040805162461bcd60e51b81526020600482015260076024820152661a5b9d985b1a5960ca1b604482015290519081900360640190fd5b816001600160a01b0316836001600160a01b0316141562000329576003805460ff1916905560095460408051635a3d549360e01b815290516001600160a01b0390921691635a3d549391600480820192602092909190829003018186803b158015620002f257600080fd5b505afa15801562000307573d6000803e3d6000fd5b505050506040513d60208110156200031e57600080fd5b5051600455620003c9565b806001600160a01b0316836001600160a01b03161415620003c9576003805460ff1916600117905560095460408051635909c0d560e01b815290516001600160a01b0390921691635909c0d591600480820192602092909190829003018186803b1580156200039757600080fd5b505afa158015620003ac573d6000803e3d6000fd5b505050506040513d6020811015620003c357600080fd5b50516004555b505042600555505043600755506003805462ff000019166205000017905561199680620003f76000396000f3fe608060405234801561001057600080fd5b506004361061012c5760003560e01c8063a025cd3f116100ad578063be9d110e11610071578063be9d110e14610301578063c1c98d0314610309578063c630d17614610311578063d6f124f014610319578063f35c9db8146103215761012c565b8063a025cd3f14610271578063a8aa1b311461028f578063acc99b37146102b3578063ada14698146102f1578063b4bf5a2e146102f95761012c565b806325057373116100f457806325057373146101f457806339c8fab9146101fc5780635c49b7a91461021f57806369ffa08a146102275780638f32d59b146102555761012c565b806301a598a61461013157806304b7c7a41461016957806313af40351461019157806316f9237b146101b75780631fa1a491146101d7575b600080fd5b6101576004803603602081101561014757600080fd5b50356001600160a01b0316610329565b60408051918252519081900360200190f35b61018f6004803603602081101561017f57600080fd5b50356001600160a01b0316610344565b005b61018f600480360360208110156101a757600080fd5b50356001600160a01b03166103ad565b61018f600480360360208110156101cd57600080fd5b503560ff16610416565b61018f600480360360208110156101ed57600080fd5b50356104cb565b610157610730565b61018f6004803603604081101561021257600080fd5b5080359060200135610736565b610157610a27565b61018f6004803603604081101561023d57600080fd5b506001600160a01b0381358116916020013516610a2d565b61025d610c19565b604080519115158252519081900360200190f35b610279610c2a565b6040805160ff9092168252519081900360200190f35b610297610c33565b604080516001600160a01b039092168252519081900360200190f35b61018f600480360360c08110156102c957600080fd5b5080359060208101359060ff6040820135169060608101359060808101359060a00135610c42565b61025d610f39565b610279610f49565b610157610f57565b61018f610f5d565b610157611003565b61018f611009565b610279611139565b6001600160a01b031660009081526002602052604090205490565b61034c610c19565b61038b576040805162461bcd60e51b81526020600482018190526024820152600080516020611941833981519152604482015290519081900360640190fd5b600880546001600160a01b0319166001600160a01b0392909216919091179055565b6103b5610c19565b6103f4576040805162461bcd60e51b81526020600482018190526024820152600080516020611941833981519152604482015290519081900360640190fd5b600080546001600160a01b0319166001600160a01b0392909216919091179055565b61041e610c19565b61045d576040805162461bcd60e51b81526020600482018190526024820152600080516020611941833981519152604482015290519081900360640190fd5b60648160ff1611156104ad576040805162461bcd60e51b8152602060048201526014602482015273063616e6e6f74206265206265796f6e64203130360641b604482015290519081900360640190fd5b6003805460ff909216620100000262ff000019909216919091179055565b3360009081526002602052604090205481111561052f576040805162461bcd60e51b815260206004820152601d60248201527f496e73756666696369656e74206c6971756964697479206c6f636b6564000000604482015290519081900360640190fd5b6000811161057c576040805162461bcd60e51b815260206004820152601560248201527443616e6e6f7420756e6c6f636b206e6f7468696e6760581b604482015290519081900360640190fd5b6008543360008181526002602052604080822054815163134fa87960e21b81526004810187905260248101919091526044810193909352516001600160a01b0390931692634d3ea1e492606480820193929182900301818387803b1580156105e357600080fd5b505af11580156105f7573d6000803e3d6000fd5b5050336000908152600260205260409020546106169250905082611148565b33600081815260026020908152604080832094909455600954845163a9059cbb60e01b815260048101949094526024840186905293516001600160a01b039094169363a9059cbb93604480820194918390030190829087803b15801561067b57600080fd5b505af115801561068f573d6000803e3d6000fd5b505050506040513d60208110156106a557600080fd5b50516106ef576040805162461bcd60e51b8152602060048201526014602482015273131310ce88151c985b9cd9995c8811985a5b195960621b604482015290519081900360640190fd5b6106f7611009565b60408051828152905133917fb93ee4c07ca93b1f961d37c044127a9394591a038abbf4cc8df9ad7e3a86f3b8919081900360200190a250565b60045481565b600054600160a01b900460ff1615610795576040805162461bcd60e51b815260206004820152601b60248201527f4c4c433a2054686973204c4c4320697320446570726563617465640000000000604482015290519081900360640190fd5b600954604080516370a0823160e01b8152336004820152905184926001600160a01b0316916370a08231916024808301926020929190829003018186803b1580156107df57600080fd5b505afa1580156107f3573d6000803e3d6000fd5b505050506040513d602081101561080957600080fd5b50511015610857576040805162461bcd60e51b81526020600482015260166024820152754c4c433a20496e73756666696369656e74204c50547360501b604482015290519081900360640190fd5b43600754106108a5576040805162461bcd60e51b81526020600482015260156024820152742626219d1026bab9ba102bb0b4ba102637b733b2b960591b604482015290519081900360640190fd5b600954604080516318160ddd60e01b815290516000926001600160a01b0316916318160ddd916004808301926020929190829003018186803b1580156108ea57600080fd5b505afa1580156108fe573d6000803e3d6000fd5b505050506040513d602081101561091457600080fd5b505190506000610922611193565b9050600061093a8361093484886114e4565b9061153d565b33600090815260026020526040902054909150610957908661157f565b33600090815260026020526040902055610970856115d9565b6008546040805163da4e4a1160e01b8152600481018490523360248201526044810187905290516001600160a01b039092169163da4e4a119160648082019260009290919082900301818387803b1580156109ca57600080fd5b505af11580156109de573d6000803e3d6000fd5b505050506109ea611009565b60408051868152905133917f07da411218fd637b3b062fcc41aad73f05aff3c93d7397e16852dcbd1daf0d5e919081900360200190a25050505050565b60075481565b610a35610c19565b610a74576040805162461bcd60e51b81526020600482018190526024820152600080516020611941833981519152604482015290519081900360640190fd5b6001546001600160a01b0383811691161415610acf576040805162461bcd60e51b815260206004820152601560248201527443616e6e6f74206d6f7665204c5020746f6b656e7360581b604482015290519081900360640190fd5b6000826001600160a01b03166370a08231306040518263ffffffff1660e01b815260040180826001600160a01b0316815260200191505060206040518083038186803b158015610b1e57600080fd5b505afa158015610b32573d6000803e3d6000fd5b505050506040513d6020811015610b4857600080fd5b50516040805163a9059cbb60e01b81526001600160a01b0385811660048301526024820184905291519293509085169163a9059cbb916044808201926020929091908290030181600087803b158015610ba057600080fd5b505af1158015610bb4573d6000803e3d6000fd5b505050506040513d6020811015610bca57600080fd5b5051610c14576040805162461bcd60e51b8152602060048201526014602482015273131310ce88151c985b9cd9995c8811985a5b195960621b604482015290519081900360640190fd5b505050565b6000546001600160a01b0316331490565b60035460ff1681565b6001546001600160a01b031681565b600054600160a01b900460ff1615610ca1576040805162461bcd60e51b815260206004820152601b60248201527f4c4c433a2054686973204c4c4320697320446570726563617465640000000000604482015290519081900360640190fd5b600954604080516370a0823160e01b8152336004820152905188926001600160a01b0316916370a08231916024808301926020929190829003018186803b158015610ceb57600080fd5b505afa158015610cff573d6000803e3d6000fd5b505050506040513d6020811015610d1557600080fd5b50511015610d63576040805162461bcd60e51b81526020600482015260166024820152754c4c433a20496e73756666696369656e74204c50547360501b604482015290519081900360640190fd5b4360075410610db1576040805162461bcd60e51b81526020600482015260156024820152742626219d1026bab9ba102bb0b4ba102637b733b2b960591b604482015290519081900360640190fd5b600954604080516318160ddd60e01b815290516000926001600160a01b0316916318160ddd916004808301926020929190829003018186803b158015610df657600080fd5b505afa158015610e0a573d6000803e3d6000fd5b505050506040513d6020811015610e2057600080fd5b505190506000610e2e611193565b90506000610e4083610934848c6114e4565b33600090815260026020526040902054909150610e5d908a61157f565b33600081815260026020526040902091909155610e7e908a8a8a8a8a6116b3565b6008546040805163da4e4a1160e01b8152600481018490523360248201526044810187905290516001600160a01b039092169163da4e4a119160648082019260009290919082900301818387803b158015610ed857600080fd5b505af1158015610eec573d6000803e3d6000fd5b50505050610ef8611009565b604080518a8152905133917f07da411218fd637b3b062fcc41aad73f05aff3c93d7397e16852dcbd1daf0d5e919081900360200190a2505050505050505050565b600054600160a01b900460ff1681565b600354610100900460ff1681565b60055481565b610f65610c19565b610fa4576040805162461bcd60e51b81526020600482018190526024820152600080516020611941833981519152604482015290519081900360640190fd5b6000805460ff600160a01b808304821615810260ff60a01b1990931692909217928390556040805192909304161515815290517fa6a833a748bb4239edb6bf29967ce0844bdde1213bfe417b50e53be0f763413d9181900360200190a1565b60065481565b60065460055461101a904290611148565b11156111375760035460ff16600114156110b057600960009054906101000a90046001600160a01b03166001600160a01b0316635909c0d56040518163ffffffff1660e01b815260040160206040518083038186803b15801561107c57600080fd5b505afa158015611090573d6000803e3d6000fd5b505050506040513d60208110156110a657600080fd5b505160045561112e565b600960009054906101000a90046001600160a01b03166001600160a01b0316635a3d54936040518163ffffffff1660e01b815260040160206040518083038186803b1580156110fe57600080fd5b505afa158015611112573d6000803e3d6000fd5b505050506040513d602081101561112857600080fd5b50516004555b42600555436007555b565b60035462010000900460ff1681565b600061118a83836040518060400160405280601e81526020017f536166654d6174683a207375627472616374696f6e206f766572666c6f770000815250611823565b90505b92915050565b6000806000600960009054906101000a90046001600160a01b03166001600160a01b0316630902f1ac6040518163ffffffff1660e01b815260040160606040518083038186803b1580156111e657600080fd5b505afa1580156111fa573d6000803e3d6000fd5b505050506040513d606081101561121057600080fd5b508051602090910151600354919350915060ff1661123c57816002026001600160701b0316925061124c565b806002026001600160701b031692505b600354610100900460ff166012146112d057600354600090601261010090910460ff161015611296575060035460ff6101009091048116601203908116600a0a93909302926112ce565b600354601261010090910460ff1611156112ce575060035460111960ff610100909204821601908116600a0a84816112ca57fe5b0493505b505b600354600090819060ff166001141561139e57600960009054906101000a90046001600160a01b03166001600160a01b0316635909c0d56040518163ffffffff1660e01b815260040160206040518083038186803b15801561133157600080fd5b505afa158015611345573d6000803e3d6000fd5b505050506040513d602081101561135b57600080fd5b50516005549092506001600160701b0384169061138b9061137d904290611148565b600454610934908690611148565b856001600160701b031602019050611447565b600960009054906101000a90046001600160a01b03166001600160a01b0316635a3d54936040518163ffffffff1660e01b815260040160206040518083038186803b1580156113ec57600080fd5b505afa158015611400573d6000803e3d6000fd5b505050506040513d602081101561141657600080fd5b50516005549092506001600160701b038516906114389061137d904290611148565b846001600160701b0316020190505b6000858211156114695761145f866109348482611148565b606402905061147d565b611477826109348882611148565b60640290505b60035462010000900460ff1681106114dc576040805162461bcd60e51b815260206004820152601960248201527f4c4c433a204d616e6970756c6174696f6e2045766964656e7400000000000000604482015290519081900360640190fd5b505050505090565b6000826114f35750600061118d565b8282028284828161150057fe5b041461118a5760405162461bcd60e51b81526004018080602001828103825260218152602001806119206021913960400191505060405180910390fd5b600061118a83836040518060400160405280601a81526020017f536166654d6174683a206469766973696f6e206279207a65726f0000000000008152506118ba565b60008282018381101561118a576040805162461bcd60e51b815260206004820152601b60248201527f536166654d6174683a206164646974696f6e206f766572666c6f770000000000604482015290519081900360640190fd5b600954604080516323b872dd60e01b81523360048201523060248201526044810184905290516001600160a01b03909216916323b872dd916064808201926020929091908290030181600087803b15801561163357600080fd5b505af1158015611647573d6000803e3d6000fd5b505050506040513d602081101561165d57600080fd5b50516116b0576040805162461bcd60e51b815260206004820152601860248201527f4c4c433a20547261736665722046726f6d206661696c65640000000000000000604482015290519081900360640190fd5b50565b6009546040805163d505accf60e01b81526001600160a01b038981166004830152306024830152604482018990526064820188905260ff8716608483015260a4820186905260c482018590529151919092169163d505accf9160e480830192600092919082900301818387803b15801561172c57600080fd5b505af1158015611740573d6000803e3d6000fd5b5050600954604080516323b872dd60e01b8152336004820152306024820152604481018a905290516001600160a01b0390921693506323b872dd92506064808201926020929091908290030181600087803b15801561179e57600080fd5b505af11580156117b2573d6000803e3d6000fd5b505050506040513d60208110156117c857600080fd5b505161181b576040805162461bcd60e51b815260206004820152601960248201527f4c4c433a205472616e736665722046726f6d206661696c656400000000000000604482015290519081900360640190fd5b505050505050565b600081848411156118b25760405162461bcd60e51b81526004018080602001828103825283818151815260200191508051906020019080838360005b8381101561187757818101518382015260200161185f565b50505050905090810190601f1680156118a45780820380516001836020036101000a031916815260200191505b509250505060405180910390fd5b505050900390565b600081836119095760405162461bcd60e51b815260206004820181815283516024840152835190928392604490910191908501908083836000831561187757818101518382015260200161185f565b50600083858161191557fe5b049594505050505056fe536166654d6174683a206d756c7469706c69636174696f6e206f766572666c6f774f776e61626c653a2063616c6c6572206973206e6f7420746865206f776e6572a2646970667358221220891918e8cbc8c682e0fa7fa7902295f2781e5aed0d501651e3a54c75d67def0664736f6c63430007050033",
  "immutableReferences": {},
  "source": "// SPDX-License-Identifier: UNLICENSED\npragma solidity 0.7 .5;\n\nimport \"@openzeppelin/contracts/math/SafeMath.sol\";\nimport \"@openzeppelin/contracts/utils/Address.sol\";\n\n// Interfaces\nimport \"../Interfaces/IUniswapV2Pair.sol\";\nimport \"../Interfaces/IValuing_01.sol\";\nimport \"../Interfaces/IERC20.sol\";\n\n\n// ---------------------------------------------------------------------------------------\n//                                Liquidity Lock Contract V1\n//                                          \n//                                for erc20/erc20 pairs  \n// ---------------------------------------------------------------------------------------\n// This contract enables the user to take out a loan using their existing liquidity \n// pool tokens (from the associated liquidity pool) as collateral. The loan is issued \n// in the form of the UND token which carries a peg to the Dai.\n// \n// This contract can be used as a factory to enable multiple liquidity pools access \n// to mint uTokens. At this time, the Unbound protocol requires one of the reserve tokens \n// in the liquidity pool to be a supported by Unbound as uToken. \n// \n// In V1, we offer the ability to take out a loan after giving permission to the LLC\n// to \"transferFrom\", as well as an option utilizing the permit() function from within\n// the uniswap liquidity pool contract. \n//\n// This is the main contract that the user will interact with. It is connected to Valuing, \n// and then the UND mint functions. Upon deployment of the LLC, its address must first be \n// registered with the valuing contract. This can only be completed by the owner (or \n// eventually a DAO).\n// ----------------------------------------------------------------------------------------\ncontract LLC_EthDai {\n    using SafeMath\n    for uint256;\n    using Address\n    for address;\n\n    // killswitch event\n    event KillSwitch(bool position);\n\n    // lockLPTEvent\n    event LockLPT(uint256 LPTamt, address indexed user);\n\n    // unlockLPTEvent\n    event UnlockLPT(uint256 LPTamt, address indexed user);\n\n    //Owner Address\n    address private _owner;\n\n    // If killSwitch = true, cannot lock LPT and mint new UND\n    bool public killSwitch;\n\n    // LPT address\n    address public pair;\n\n    // tokens locked by users\n    mapping(address => uint256) _tokensLocked;\n\n    // token position of baseAsset\n    uint8 public _position;\n\n    // set this in constructor, tracks decimals of baseAsset\n    uint8 public baseAssetDecimal;\n\n    // maximum percent difference in oracle vs. standard valuation\n    uint8 public maxPercentDiff;\n\n    // Oracle Variables: Old PriceCumulativeLast and Old Timestamp\n    uint256 public _oldPriceCumulativeLast;\n    uint256 public _oldTimeStamp;\n\n    // Time to update oracle\n    uint256 public _timeToUpdate;\n\n    // records block that oracle is updated\n    uint256 public _lastBlockUpdate;\n\n    // Interfaced Contracts\n    IValuing_01 private valuingContract;\n    IUniswapV2Pair_0 private LPTContract;\n    IERC20_2 private baseAssetErc20;\n\n    // Modifiers\n    modifier onlyOwner() {\n        require(isOwner(), \"Ownable: caller is not the owner\");\n        _;\n    }\n\n    // Constructor - must provide valuing contract address, the associated Liquidity pool address (i.e. eth/dai uniswap pool token address),\n    //               and the address of the baseAsset in the uniswap pair.\n    constructor(address valuingAddress, address LPTaddress, address baseAsset) {\n        _owner = msg.sender;\n\n        // set timeToUpdate to 1hr\n        _timeToUpdate = 3600;\n\n        // initiates interfacing contracts\n        valuingContract = IValuing_01(valuingAddress);\n        LPTContract = IUniswapV2Pair_0(LPTaddress);\n        baseAssetErc20 = IERC20_2(baseAsset);\n\n        // killSwitch MUST be false for lockLPT to work\n        killSwitch = false;\n\n        // set LPT address\n        pair = LPTaddress;\n\n        // saves pair token addresses to memory\n        address toke0 = LPTContract.token0();\n        address toke1 = LPTContract.token1();\n\n        // sets the decimals value of the baseAsset\n        baseAssetDecimal = baseAssetErc20.decimals();\n\n        // assigns which token in the pair is a baseAsset, updates first oracle.\n        require(baseAsset == toke0 || baseAsset == toke1, \"invalid\");\n        if (baseAsset == toke0) {\n            _position = 0;\n\n            // oracle numbers\n            _oldPriceCumulativeLast = LPTContract.price1CumulativeLast();\n\n\n        } else if (baseAsset == toke1) {\n            _position = 1;\n\n            // oracle numbers\n            _oldPriceCumulativeLast = LPTContract.price0CumulativeLast();\n\n        }\n\n        // record timestamp old\n        _oldTimeStamp = block.timestamp;\n\n        // last block updated\n        _lastBlockUpdate = block.number;\n\n        // set maxPercentDiff\n        maxPercentDiff = 5;\n    }\n\n    // Lock/Unlock functions\n    // Mint path\n    function lockLPTWithPermit(uint256 LPTamt, uint deadline, uint8 v, bytes32 r, bytes32 s, uint256 minTokenAmount) public {\n        require(!killSwitch, \"LLC: This LLC is Deprecated\");\n        require(LPTContract.balanceOf(msg.sender) >= LPTamt, \"LLC: Insufficient LPTs\");\n        require(_lastBlockUpdate < block.number, \"LLC: Must Wait Longer\");\n        uint256 totalLPTokens = LPTContract.totalSupply();\n\n        // Acquire total baseAsset value of pair\n        uint256 totalUSD = getValue();\n\n        // This should compute % value of Liq pool in Dai. Cannot have decimals in Solidity\n        uint256 LPTValueInDai = totalUSD.mul(LPTamt).div(totalLPTokens);\n\n        // map locked tokens to user address\n        _tokensLocked[msg.sender] = _tokensLocked[msg.sender].add(LPTamt);\n\n        // call Permit and Transfer\n        transferLPTPermit(msg.sender, LPTamt, deadline, v, r, s);\n\n        // Call Valuing Contract\n        valuingContract.unboundCreate(LPTValueInDai, msg.sender, minTokenAmount); // Hardcode \"0\" for AAA rating\n\n        // check if time to update oracle\n        updateOracle();\n\n        // emit lockLPT event\n        emit LockLPT(LPTamt, msg.sender);\n    }\n\n    // Requires approval first (permit excluded for simplicity)\n    function lockLPT(uint256 LPTamt, uint256 minTokenAmount) public {\n        require(!killSwitch, \"LLC: This LLC is Deprecated\");\n        require(LPTContract.balanceOf(msg.sender) >= LPTamt, \"LLC: Insufficient LPTs\");\n        require(_lastBlockUpdate < block.number, \"LLC: Must Wait Longer\");\n        uint256 totalLPTokens = LPTContract.totalSupply();\n\n        // Acquire total baseAsset value of pair\n        uint256 totalUSD = getValue();\n\n        // This should compute % value of Liq pool in Dai. Cannot have decimals in Solidity\n        uint256 LPTValueInDai = totalUSD.mul(LPTamt).div(totalLPTokens);\n\n        // map locked tokens to user\n        _tokensLocked[msg.sender] = _tokensLocked[msg.sender].add(LPTamt);\n\n        // transfer LPT to the address\n        transferLPT(LPTamt);\n\n        // Call Valuing Contract\n        valuingContract.unboundCreate(LPTValueInDai, msg.sender, minTokenAmount);\n\n        // check if time to update oracle\n        updateOracle();\n        \n\n        // emit lockLPT event\n        emit LockLPT(LPTamt, msg.sender);\n    }\n\n    // Acquires total value of liquidity pool (in baseAsset) and normalizes decimals to 18.\n    function getValue() internal view returns(uint256 _totalUSD) {\n        // obtain amounts of tokens in both reserves.\n        (uint112 _token0, uint112 _token1, ) = LPTContract.getReserves();\n\n        // obtain total USD value\n        if (_position == 0) {\n            _totalUSD = _token0 * 2; // pricing();\n        } else {\n            _totalUSD = _token1 * 2;\n        }\n\n        // Token Decimal Normalization\n        //\n        // The following block ensures that all baseAsset valuations follow consistency with decimals\n        // and match the 18 decimals used by UND. This block also solves a potential vulnerability,\n        // where a baseAsset pair which contains beyond 18 decimals could be used to calculate significantly\n        // more UND (by orders of 10). Likewise, baseAssets such as USDC or USDT with 6 decimals would also \n        // result in far less UND minted than desired.\n        //\n        // this should only happen if baseAsset decimals is NOT 18.\n        if (baseAssetDecimal != 18) {\n\n            uint8 difference;\n\n            // first case: tokenDecimal is smaller than 18\n            // for baseAssets with less than 18 decimals\n            if (baseAssetDecimal < 18) {\n\n                // calculate amount of decimals under 18\n                difference = 18 - baseAssetDecimal;\n\n                // adds decimals to match 18\n                _totalUSD = _totalUSD * (10 ** uint256(difference));\n            }\n\n            // second case: tokenDecimal is greater than 18\n            // for tokens with more than 18 decimals \n            else if (baseAssetDecimal > 18) {\n\n                // caclulate amount of decimals over 18\n                difference = baseAssetDecimal - 18;\n\n                // removes decimals to match 18\n                _totalUSD = _totalUSD / (10 ** uint256(difference));\n            }\n        }\n\n        // oracle price value calculation:\n        uint256 newPriceCumulative;\n        uint256 _totalUSDOracle;\n\n        // Need to test if these values are correct (_token0 or _token1)\n        if (_position == 1) {\n            newPriceCumulative = LPTContract.price0CumulativeLast();\n            _totalUSDOracle = (_token0 * (newPriceCumulative.sub(_oldPriceCumulativeLast)).div(block.timestamp.sub(_oldTimeStamp))) + _token1;\n        } else {\n            newPriceCumulative = LPTContract.price1CumulativeLast();\n            _totalUSDOracle = (_token1 * (newPriceCumulative.sub(_oldPriceCumulativeLast)).div(block.timestamp.sub(_oldTimeStamp))) + _token0;\n        }\n\n        // Calculate percent difference (x2 - x1 / x1)\n        uint256 percentDiff;\n        if (_totalUSDOracle > _totalUSD) {\n            percentDiff = 100 * (_totalUSDOracle.sub(_totalUSD)).div(_totalUSD);\n        } else {\n            percentDiff = 100 * (_totalUSD.sub(_totalUSDOracle)).div(_totalUSDOracle);\n        }\n        require(percentDiff < maxPercentDiff, \"LLC: Manipulation Evident\");\n\n    }\n\n    // update ORACLE value.\n    function updateOracle() public {\n        if (block.timestamp.sub(_oldTimeStamp) > _timeToUpdate) {\n\n            if (_position == 1) {\n                _oldPriceCumulativeLast = LPTContract.price0CumulativeLast();\n            } else {\n                _oldPriceCumulativeLast = LPTContract.price1CumulativeLast();\n            }\n            // update old timestamp\n            _oldTimeStamp = block.timestamp;\n\n            // update the block at which oracle is updated\n            _lastBlockUpdate = block.number;\n        }\n    }\n\n    // calls transfer only, for use with non-permit lock function\n    function transferLPT(uint256 amount) internal {\n        require(LPTContract.transferFrom(msg.sender, address(this), amount), \"LLC: Trasfer From failed\");\n\n    }\n\n    // calls permit, then transfer\n    function transferLPTPermit(address user, uint256 amount, uint deadline, uint8 v, bytes32 r, bytes32 s) internal {\n        LPTContract.permit(user, address(this), amount, deadline, v, r, s);\n        require(LPTContract.transferFrom(msg.sender, address(this), amount), \"LLC: Transfer From failed\");\n\n    }\n\n    // Burn Path\n    // \n    // allows for partial loan payment by using the ratio of LPtokens to unlock and total LPtokens locked\n    function unlockLPT(uint256 LPToken) public {\n        require(_tokensLocked[msg.sender] >= LPToken, \"Insufficient liquidity locked\");\n        require(LPToken > 0, \"Cannot unlock nothing\");\n\n        // Burning of UND will happen first\n        valuingContract.unboundRemove(LPToken, _tokensLocked[msg.sender], msg.sender);\n\n        // update mapping\n        _tokensLocked[msg.sender] = _tokensLocked[msg.sender].sub(LPToken);\n\n        // send LP tokens back to user\n        require(LPTContract.transfer(msg.sender, LPToken), \"LLC: Transfer Failed\");\n\n        // check if time to update oracle\n        updateOracle();\n\n        // emit unlockLPT event\n        emit UnlockLPT(LPToken, msg.sender);\n\n    }\n\n    function tokensLocked(address account) public view returns(uint256) {\n        return _tokensLocked[account];\n    }\n\n    // onlyOwner Functions\n\n    // set Max Percent Difference\n    function setMaxPercentDifference(uint8 amount) public onlyOwner {\n        require(amount <= 100, \"cannot be beyond 100\");\n        maxPercentDiff = amount;\n    }\n\n    // Claim - remove any airdropped tokens\n    // currently sends all tokens to \"to\" address (in param)\n    function claimTokens(address _tokenAddr, address to) public onlyOwner {\n        require(_tokenAddr != pair, \"Cannot move LP tokens\");\n        uint256 tokenBal = IERC20_2(_tokenAddr).balanceOf(address(this));\n        require(IERC20_2(_tokenAddr).transfer(to, tokenBal), \"LLC: Transfer Failed\");\n    }\n\n    // Kill Switch - deactivate locking of LPT\n    function disableLock() public onlyOwner {\n        killSwitch = !killSwitch;\n        emit KillSwitch(killSwitch);\n    }\n\n    // Checks if sender is owner\n    function isOwner() public view returns(bool) {\n        return msg.sender == _owner;\n    }\n\n    // Changes owner\n    function setOwner(address _newOwner) public onlyOwner {\n        _owner = _newOwner;\n    }\n\n    // Sets new Valuing Address\n    function setValuingAddress(address _newValuing) public onlyOwner {\n        valuingContract = IValuing_01(_newValuing);\n    }\n}",
  "sourcePath": "/Users/tomohiro/Documents/Projects/unbound/UnboundContracts/contracts/LiquidityLockContracts/LLC_EthDai.sol",
  "compiler": {
    "name": "solc",
    "version": "0.7.5+commit.eb77ed08.Emscripten.clang"
  },
  "schemaVersion": "3.3.2",
  "updatedAt": "2020-12-21T00:00:09.155Z",
  "devdoc": {
    "kind": "dev",
    "methods": {},
    "version": 1
  },
  "userdoc": {
    "kind": "user",
    "methods": {},
    "version": 1
  }
}