{
  "contractName": "LLC_EthDai",
  "abi": [
    {
      "inputs": [
        {
          "internalType": "address",
          "name": "valuingAddress",
          "type": "address"
        },
        {
          "internalType": "address",
          "name": "LPTaddress",
          "type": "address"
        },
        {
          "internalType": "address",
          "name": "baseAsset",
          "type": "address"
        },
        {
          "internalType": "address",
          "name": "_uToken",
          "type": "address"
        }
      ],
      "stateMutability": "nonpayable",
      "type": "constructor"
    },
    {
      "anonymous": false,
      "inputs": [
        {
          "indexed": false,
          "internalType": "bool",
          "name": "position",
          "type": "bool"
        }
      ],
      "name": "KillSwitch",
      "type": "event"
    },
    {
      "anonymous": false,
      "inputs": [
        {
          "indexed": false,
          "internalType": "uint256",
          "name": "LPTamt",
          "type": "uint256"
        },
        {
          "indexed": true,
          "internalType": "address",
          "name": "user",
          "type": "address"
        },
        {
          "indexed": true,
          "internalType": "address",
          "name": "uToken",
          "type": "address"
        }
      ],
      "name": "LockLPT",
      "type": "event"
    },
    {
      "anonymous": false,
      "inputs": [
        {
          "indexed": false,
          "internalType": "uint256",
          "name": "LPTamt",
          "type": "uint256"
        },
        {
          "indexed": true,
          "internalType": "address",
          "name": "user",
          "type": "address"
        },
        {
          "indexed": true,
          "internalType": "address",
          "name": "uToken",
          "type": "address"
        }
      ],
      "name": "UnlockLPT",
      "type": "event"
    },
    {
      "inputs": [],
      "name": "_position",
      "outputs": [
        {
          "internalType": "uint8",
          "name": "",
          "type": "uint8"
        }
      ],
      "stateMutability": "view",
      "type": "function"
    },
    {
      "inputs": [],
      "name": "baseAssetDecimal",
      "outputs": [
        {
          "internalType": "uint8",
          "name": "",
          "type": "uint8"
        }
      ],
      "stateMutability": "view",
      "type": "function"
    },
    {
      "inputs": [],
      "name": "killSwitch",
      "outputs": [
        {
          "internalType": "bool",
          "name": "",
          "type": "bool"
        }
      ],
      "stateMutability": "view",
      "type": "function"
    },
    {
      "inputs": [],
      "name": "pair",
      "outputs": [
        {
          "internalType": "address",
          "name": "",
          "type": "address"
        }
      ],
      "stateMutability": "view",
      "type": "function"
    },
    {
      "inputs": [],
      "name": "uToken",
      "outputs": [
        {
          "internalType": "address",
          "name": "",
          "type": "address"
        }
      ],
      "stateMutability": "view",
      "type": "function"
    },
    {
      "inputs": [
        {
          "internalType": "uint256",
          "name": "LPTamt",
          "type": "uint256"
        },
        {
          "internalType": "uint256",
          "name": "deadline",
          "type": "uint256"
        },
        {
          "internalType": "uint8",
          "name": "v",
          "type": "uint8"
        },
        {
          "internalType": "bytes32",
          "name": "r",
          "type": "bytes32"
        },
        {
          "internalType": "bytes32",
          "name": "s",
          "type": "bytes32"
        },
        {
          "internalType": "uint256",
          "name": "minTokenAmount",
          "type": "uint256"
        }
      ],
      "name": "lockLPTWithPermit",
      "outputs": [],
      "stateMutability": "nonpayable",
      "type": "function"
    },
    {
      "inputs": [
        {
          "internalType": "uint256",
          "name": "LPTamt",
          "type": "uint256"
        },
        {
          "internalType": "uint256",
          "name": "minTokenAmount",
          "type": "uint256"
        }
      ],
      "name": "lockLPT",
      "outputs": [],
      "stateMutability": "nonpayable",
      "type": "function"
    },
    {
      "inputs": [
        {
          "internalType": "uint256",
          "name": "LPToken",
          "type": "uint256"
        }
      ],
      "name": "unlockLPT",
      "outputs": [],
      "stateMutability": "nonpayable",
      "type": "function"
    },
    {
      "inputs": [
        {
          "internalType": "address",
          "name": "account",
          "type": "address"
        }
      ],
      "name": "tokensLocked",
      "outputs": [
        {
          "internalType": "uint256",
          "name": "",
          "type": "uint256"
        }
      ],
      "stateMutability": "view",
      "type": "function"
    },
    {
      "inputs": [
        {
          "internalType": "address",
          "name": "_tokenAddr",
          "type": "address"
        },
        {
          "internalType": "address",
          "name": "to",
          "type": "address"
        }
      ],
      "name": "claimTokens",
      "outputs": [],
      "stateMutability": "nonpayable",
      "type": "function"
    },
    {
      "inputs": [],
      "name": "disableLock",
      "outputs": [],
      "stateMutability": "nonpayable",
      "type": "function"
    },
    {
      "inputs": [],
      "name": "isOwner",
      "outputs": [
        {
          "internalType": "bool",
          "name": "",
          "type": "bool"
        }
      ],
      "stateMutability": "view",
      "type": "function"
    },
    {
      "inputs": [
        {
          "internalType": "address",
          "name": "_newOwner",
          "type": "address"
        }
      ],
      "name": "setOwner",
      "outputs": [],
      "stateMutability": "nonpayable",
      "type": "function"
    },
    {
      "inputs": [
        {
          "internalType": "address",
          "name": "_newValuing",
          "type": "address"
        }
      ],
      "name": "setValuingAddress",
      "outputs": [],
      "stateMutability": "nonpayable",
      "type": "function"
    }
  ],
  "bytecode": "0x60806040523480156200001157600080fd5b50604051620017ea380380620017ea833981810160405260808110156200003757600080fd5b508051602080830151604080850151606090950151600080546004805462010000600160b01b031916620100006001600160a01b03808b1691909102919091178255600580546001600160a01b0319908116838a1690811792839055600680548316858f16179055339582169590951760ff60a01b1916865560018054821690951790945560028054909416828716179093558551630dfe168160e01b8152955198999698969794969395921693630dfe1681938383019391929091829003018186803b1580156200010857600080fd5b505afa1580156200011d573d6000803e3d6000fd5b505050506040513d60208110156200013457600080fd5b50516005546040805163d21220a760e01b815290519293506000926001600160a01b039092169163d21220a791600480820192602092909190829003018186803b1580156200018257600080fd5b505afa15801562000197573d6000803e3d6000fd5b505050506040513d6020811015620001ae57600080fd5b50516006546040805163313ce56760e01b815290519293506001600160a01b039091169163313ce56791600480820192602092909190829003018186803b158015620001f957600080fd5b505afa1580156200020e573d6000803e3d6000fd5b505050506040513d60208110156200022557600080fd5b50516004805460ff9092166101000261ff00199092169190911790556001600160a01b0384811690831614806200026d5750806001600160a01b0316846001600160a01b0316145b620002a9576040805162461bcd60e51b81526020600482015260076024820152661a5b9d985b1a5960ca1b604482015290519081900360640190fd5b816001600160a01b0316846001600160a01b03161415620002d4576004805460ff19169055620002fd565b806001600160a01b0316846001600160a01b03161415620002fd576004805460ff191660011790555b5050505050506114d780620003136000396000f3fe608060405234801561001057600080fd5b50600436106100ea5760003560e01c80638f32d59b1161008c578063acc99b3711610066578063acc99b3714610249578063ada1469814610287578063b4bf5a2e1461028f578063c1c98d0314610297576100ea565b80638f32d59b14610207578063a025cd3f14610223578063a8aa1b3114610241576100ea565b80631fa1a491116100c85780631fa1a4911461017557806339c8fab91461019257806363315637146101b557806369ffa08a146101d9576100ea565b806301a598a6146100ef57806304b7c7a41461012757806313af40351461014f575b600080fd5b6101156004803603602081101561010557600080fd5b50356001600160a01b031661029f565b60408051918252519081900360200190f35b61014d6004803603602081101561013d57600080fd5b50356001600160a01b03166102ba565b005b61014d6004803603602081101561016557600080fd5b50356001600160a01b031661032b565b61014d6004803603602081101561018b57600080fd5b5035610394565b61014d600480360360408110156101a857600080fd5b5080359060200135610617565b6101bd6108e1565b604080516001600160a01b039092168252519081900360200190f35b61014d600480360360408110156101ef57600080fd5b506001600160a01b03813581169160200135166108f0565b61020f610ad7565b604080519115158252519081900360200190f35b61022b610ae8565b6040805160ff9092168252519081900360200190f35b6101bd610af1565b61014d600480360360c081101561025f57600080fd5b5080359060208101359060ff6040820135169060608101359060808101359060a00135610b00565b61020f610dca565b61022b610dda565b61014d610de8565b6001600160a01b031660009081526003602052604090205490565b6102c2610ad7565b610301576040805162461bcd60e51b81526020600482018190526024820152600080516020611482833981519152604482015290519081900360640190fd5b600480546001600160a01b03909216620100000262010000600160b01b0319909216919091179055565b610333610ad7565b610372576040805162461bcd60e51b81526020600482018190526024820152600080516020611482833981519152604482015290519081900360640190fd5b600080546001600160a01b0319166001600160a01b0392909216919091179055565b336000908152600360205260409020548111156103f8576040805162461bcd60e51b815260206004820152601d60248201527f496e73756666696369656e74206c6971756964697479206c6f636b6564000000604482015290519081900360640190fd5b60008111610445576040805162461bcd60e51b815260206004820152601560248201527443616e6e6f7420756e6c6f636b206e6f7468696e6760581b604482015290519081900360640190fd5b600480543360008181526003602052604080822054600254825163613d1bb560e01b8152968701889052602487019190915260448601939093526001600160a01b03928316606486015251620100009093049091169263613d1bb5926084808301939282900301818387803b1580156104bd57600080fd5b505af11580156104d1573d6000803e3d6000fd5b5050336000908152600360205260409020546104f6925090508263ffffffff610e8e16565b33600081815260036020908152604080832094909455600554845163a9059cbb60e01b815260048101949094526024840186905293516001600160a01b039094169363a9059cbb93604480820194918390030190829087803b15801561055b57600080fd5b505af115801561056f573d6000803e3d6000fd5b505050506040513d602081101561058557600080fd5b50516105cf576040805162461bcd60e51b8152602060048201526014602482015273131310ce88151c985b9cd9995c8811985a5b195960621b604482015290519081900360640190fd5b6002546040805183815290516001600160a01b039092169133917f53ad24497f591e7a1745e93bf5f018d32c805d12ac30badd03849653ef29d858919081900360200190a350565b600054600160a01b900460ff1615610676576040805162461bcd60e51b815260206004820152601b60248201527f4c4c433a2054686973204c4c4320697320446570726563617465640000000000604482015290519081900360640190fd5b600554604080516370a0823160e01b8152336004820152905184926001600160a01b0316916370a08231916024808301926020929190829003018186803b1580156106c057600080fd5b505afa1580156106d4573d6000803e3d6000fd5b505050506040513d60208110156106ea57600080fd5b50511015610738576040805162461bcd60e51b81526020600482015260166024820152754c4c433a20496e73756666696369656e74204c50547360501b604482015290519081900360640190fd5b600554604080516318160ddd60e01b815290516000926001600160a01b0316916318160ddd916004808301926020929190829003018186803b15801561077d57600080fd5b505afa158015610791573d6000803e3d6000fd5b505050506040513d60208110156107a757600080fd5b5051905060006107b5610ed9565b905060006107d9836107cd848863ffffffff61102516565b9063ffffffff61107e16565b336000908152600360205260409020549091506107fc908663ffffffff6110c016565b336000908152600360205260409020556108158561111a565b6004805460025460408051630d077e7360e41b81529384018590523360248501526001600160a01b039182166044850152606484018890525162010000909204169163d077e73091608480830192600092919082900301818387803b15801561087d57600080fd5b505af1158015610891573d6000803e3d6000fd5b50506002546040805189815290516001600160a01b0390921693503392507fa557d8985eea65e379f68487c633a2f95e090a31f73aa1e46721d78d6b38dd77919081900360200190a35050505050565b6002546001600160a01b031681565b6108f8610ad7565b610937576040805162461bcd60e51b81526020600482018190526024820152600080516020611482833981519152604482015290519081900360640190fd5b6001546001600160a01b0383811691161415610992576040805162461bcd60e51b815260206004820152601560248201527443616e6e6f74206d6f7665204c5020746f6b656e7360581b604482015290519081900360640190fd5b604080516370a0823160e01b815230600482015290516000916001600160a01b038516916370a0823191602480820192602092909190829003018186803b1580156109dc57600080fd5b505afa1580156109f0573d6000803e3d6000fd5b505050506040513d6020811015610a0657600080fd5b50516040805163a9059cbb60e01b81526001600160a01b0385811660048301526024820184905291519293509085169163a9059cbb916044808201926020929091908290030181600087803b158015610a5e57600080fd5b505af1158015610a72573d6000803e3d6000fd5b505050506040513d6020811015610a8857600080fd5b5051610ad2576040805162461bcd60e51b8152602060048201526014602482015273131310ce88151c985b9cd9995c8811985a5b195960621b604482015290519081900360640190fd5b505050565b6000546001600160a01b0316331490565b60045460ff1681565b6001546001600160a01b031681565b600054600160a01b900460ff1615610b5f576040805162461bcd60e51b815260206004820152601b60248201527f4c4c433a2054686973204c4c4320697320446570726563617465640000000000604482015290519081900360640190fd5b600554604080516370a0823160e01b8152336004820152905188926001600160a01b0316916370a08231916024808301926020929190829003018186803b158015610ba957600080fd5b505afa158015610bbd573d6000803e3d6000fd5b505050506040513d6020811015610bd357600080fd5b50511015610c21576040805162461bcd60e51b81526020600482015260166024820152754c4c433a20496e73756666696369656e74204c50547360501b604482015290519081900360640190fd5b600554604080516318160ddd60e01b815290516000926001600160a01b0316916318160ddd916004808301926020929190829003018186803b158015610c6657600080fd5b505afa158015610c7a573d6000803e3d6000fd5b505050506040513d6020811015610c9057600080fd5b505190506000610c9e610ed9565b90506000610cb6836107cd848c63ffffffff61102516565b33600090815260036020526040902054909150610cd9908a63ffffffff6110c016565b33600081815260036020526040902091909155610cfa908a8a8a8a8a6111f4565b6004805460025460408051630d077e7360e41b81529384018590523360248501526001600160a01b039182166044850152606484018890525162010000909204169163d077e73091608480830192600092919082900301818387803b158015610d6257600080fd5b505af1158015610d76573d6000803e3d6000fd5b5050600254604080518d815290516001600160a01b0390921693503392507fa557d8985eea65e379f68487c633a2f95e090a31f73aa1e46721d78d6b38dd77919081900360200190a3505050505050505050565b600054600160a01b900460ff1681565b600454610100900460ff1681565b610df0610ad7565b610e2f576040805162461bcd60e51b81526020600482018190526024820152600080516020611482833981519152604482015290519081900360640190fd5b6000805460ff600160a01b808304821615810260ff60a01b1990931692909217928390556040805192909304161515815290517fa6a833a748bb4239edb6bf29967ce0844bdde1213bfe417b50e53be0f763413d9181900360200190a1565b6000610ed083836040518060400160405280601e81526020017f536166654d6174683a207375627472616374696f6e206f766572666c6f770000815250611364565b90505b92915050565b6000806000600560009054906101000a90046001600160a01b03166001600160a01b0316630902f1ac6040518163ffffffff1660e01b815260040160606040518083038186803b158015610f2c57600080fd5b505afa158015610f40573d6000803e3d6000fd5b505050506040513d6060811015610f5657600080fd5b508051602090910151600454919350915060ff16610f8257816002026001600160701b03169250610f92565b806002026001600160701b031692505b600454610100900460ff1660121461102057600454600090601261010090910460ff16108015610fc0575060015b15610fe6575060045460ff6101009091048116601203908116600a0a939093029261101e565b600454601261010090910460ff16111561101e575060045460111960ff610100909204821601908116600a0a848161101a57fe5b0493505b505b505090565b60008261103457506000610ed3565b8282028284828161104157fe5b0414610ed05760405162461bcd60e51b81526004018080602001828103825260218152602001806114616021913960400191505060405180910390fd5b6000610ed083836040518060400160405280601a81526020017f536166654d6174683a206469766973696f6e206279207a65726f0000000000008152506113fb565b600082820183811015610ed0576040805162461bcd60e51b815260206004820152601b60248201527f536166654d6174683a206164646974696f6e206f766572666c6f770000000000604482015290519081900360640190fd5b600554604080516323b872dd60e01b81523360048201523060248201526044810184905290516001600160a01b03909216916323b872dd916064808201926020929091908290030181600087803b15801561117457600080fd5b505af1158015611188573d6000803e3d6000fd5b505050506040513d602081101561119e57600080fd5b50516111f1576040805162461bcd60e51b815260206004820152601860248201527f4c4c433a20547261736665722046726f6d206661696c65640000000000000000604482015290519081900360640190fd5b50565b6005546040805163d505accf60e01b81526001600160a01b038981166004830152306024830152604482018990526064820188905260ff8716608483015260a4820186905260c482018590529151919092169163d505accf9160e480830192600092919082900301818387803b15801561126d57600080fd5b505af1158015611281573d6000803e3d6000fd5b5050600554604080516323b872dd60e01b8152336004820152306024820152604481018a905290516001600160a01b0390921693506323b872dd92506064808201926020929091908290030181600087803b1580156112df57600080fd5b505af11580156112f3573d6000803e3d6000fd5b505050506040513d602081101561130957600080fd5b505161135c576040805162461bcd60e51b815260206004820152601960248201527f4c4c433a205472616e736665722046726f6d206661696c656400000000000000604482015290519081900360640190fd5b505050505050565b600081848411156113f35760405162461bcd60e51b81526004018080602001828103825283818151815260200191508051906020019080838360005b838110156113b85781810151838201526020016113a0565b50505050905090810190601f1680156113e55780820380516001836020036101000a031916815260200191505b509250505060405180910390fd5b505050900390565b6000818361144a5760405162461bcd60e51b81526020600482018181528351602484015283519092839260449091019190850190808383600083156113b85781810151838201526020016113a0565b50600083858161145657fe5b049594505050505056fe536166654d6174683a206d756c7469706c69636174696f6e206f766572666c6f774f776e61626c653a2063616c6c6572206973206e6f7420746865206f776e6572a2646970667358221220c000da68b94614588662ad50492fe77a63b3e0a3476f2bf8508d911b2796b4ce64736f6c63430006060033",
  "immutableReferences": {},
  "source": "pragma solidity >=0.4.23 <0.8.0;\n// SPDX-License-Identifier: MIT\n\nimport \"@openzeppelin/contracts/math/SafeMath.sol\";\nimport \"@openzeppelin/contracts/utils/Address.sol\";\n\n// Interfaces\nimport \"../Interfaces/IUniswapV2Pair.sol\";\nimport \"../Interfaces/IValuing_01.sol\";\nimport \"../Interfaces/IERC20.sol\";\n\n\n// ---------------------------------------------------------------------------------------\n//                                Liquidity Lock Contract V1\n//                                          \n//                                for erc20/erc20 pairs  \n// ---------------------------------------------------------------------------------------\n// This contract enables the user to take out a loan using their existing liquidity \n// pool tokens (from the associated liquidity pool) as collateral. The loan is issued \n// in the form of the UND token which carries a peg to the Dai.\n// \n// This contract can be used as a factory to enable multiple liquidity pools access \n// to mint uTokens. At this time, the Unbound protocol requires one of the reserve tokens \n// in the liquidity pool to be a supported by Unbound as uToken. \n// \n// In V1, we offer the ability to take out a loan after giving permission to the LLC\n// to \"transferFrom\", as well as an option utilizing the permit() function from within\n// the uniswap liquidity pool contract. \n//\n// This is the main contract that the user will interact with. It is connected to Valuing, \n// and then the UND mint functions. Upon deployment of the LLC, its address must first be \n// registered with the valuing contract. This can only be completed by the owner (or \n// eventually a DAO).\n// ----------------------------------------------------------------------------------------\ncontract LLC_EthDai {\n    using SafeMath for uint256;\n    using Address for address;\n\n    // killswitch event\n    event KillSwitch(bool position);\n\n    // lockLPTEvent\n    event LockLPT(uint256 LPTamt, address indexed user, address indexed uToken);\n\n    // unlockLPTEvent\n    event UnlockLPT(uint256 LPTamt, address indexed user, address indexed uToken);\n\n    //Owner Address\n    address private _owner;\n\n    // If killSwitch = true, cannot lock LPT and mint new UND\n    bool public killSwitch;\n\n    // LPT address\n    address public pair;\n\n    // uToken ADdress\n    address public uToken;\n\n    // tokens locked by users\n    mapping (address => uint256) _tokensLocked;\n\n    // token position of baseAsset\n    uint8 public _position;\n\n    // set this in constructor, tracks decimals of baseAsset\n    uint8 public baseAssetDecimal;\n\n    // Interfaced Contracts\n    IValuing_01 private valuingContract;\n    IUniswapV2Pair_0 private LPTContract;\n    IERC20_2 private baseAssetErc20;\n\n    // Modifiers\n    modifier onlyOwner() {\n        require(isOwner(), \"Ownable: caller is not the owner\");\n        _;\n    }\n\n    // Constructor - must provide valuing contract address, the associated Liquidity pool address (i.e. eth/dai uniswap pool token address),\n    //               and the address of the baseAsset in the uniswap pair.\n    constructor (address valuingAddress, address LPTaddress, address baseAsset, address _uToken) public {\n        _owner = msg.sender;\n        \n        // initiates interfacing contracts\n        valuingContract = IValuing_01(valuingAddress);\n        LPTContract = IUniswapV2Pair_0(LPTaddress);\n        baseAssetErc20 = IERC20_2(baseAsset);\n\n        // killSwitch MUST be false for lockLPT to work\n        killSwitch = false;\n\n        // set LPT address\n        pair = LPTaddress;\n\n        // set uToken Address\n        uToken = _uToken;\n\n        // saves pair token addresses to memory\n        address toke0 = LPTContract.token0();\n        address toke1 = LPTContract.token1();\n\n        // sets the decimals value of the baseAsset\n        baseAssetDecimal = baseAssetErc20.decimals();\n\n        // assigns which token in the pair is a baseAsset\n        require (baseAsset == toke0 || baseAsset == toke1, \"invalid\");\n        if (baseAsset == toke0) {\n            _position = 0;\n        } else if (baseAsset == toke1) {\n            _position = 1;\n        }\n    }\n\n    // Lock/Unlock functions\n    // Mint path\n    function lockLPTWithPermit (uint256 LPTamt, uint deadline, uint8 v, bytes32 r, bytes32 s, uint256 minTokenAmount) public {\n        require(!killSwitch, \"LLC: This LLC is Deprecated\");\n        require(LPTContract.balanceOf(msg.sender) >= LPTamt, \"LLC: Insufficient LPTs\");\n        uint256 totalLPTokens = LPTContract.totalSupply();\n        \n        // Acquire total baseAsset value of pair\n        uint256 totalUSD = getValue();\n        \n        // This should compute % value of Liq pool in Dai. Cannot have decimals in Solidity\n        uint256 LPTValueInDai = totalUSD.mul(LPTamt).div(totalLPTokens);  \n        \n        // map locked tokens to user address\n        _tokensLocked[msg.sender] = _tokensLocked[msg.sender].add(LPTamt);\n\n        // call Permit and Transfer\n        transferLPTPermit(msg.sender, LPTamt, deadline, v, r, s);\n\n        // Call Valuing Contract\n        valuingContract.unboundCreate(LPTValueInDai, msg.sender, uToken, minTokenAmount); // Hardcode \"0\" for AAA rating\n\n        // emit lockLPT event\n        emit LockLPT(LPTamt, msg.sender, uToken);\n    }\n\n    // Requires approval first (permit excluded for simplicity)\n    function lockLPT (uint256 LPTamt, uint256 minTokenAmount) public {\n        require(!killSwitch, \"LLC: This LLC is Deprecated\");\n        require(LPTContract.balanceOf(msg.sender) >= LPTamt, \"LLC: Insufficient LPTs\");\n        uint256 totalLPTokens = LPTContract.totalSupply();\n        \n        // Acquire total baseAsset value of pair\n        uint256 totalUSD = getValue();\n\n        // This should compute % value of Liq pool in Dai. Cannot have decimals in Solidity\n        uint256 LPTValueInDai = totalUSD.mul(LPTamt).div(totalLPTokens);  \n        \n        // map locked tokens to user\n        _tokensLocked[msg.sender] = _tokensLocked[msg.sender].add(LPTamt);\n\n        // transfer LPT to the address\n        transferLPT(LPTamt);\n\n        // Call Valuing Contract\n        valuingContract.unboundCreate(LPTValueInDai, msg.sender, uToken, minTokenAmount); \n\n        // emit lockLPT event\n        emit LockLPT(LPTamt, msg.sender, uToken);\n    }\n\n    // Acquires total value of liquidity pool (in baseAsset) and normalizes decimals to 18.\n    function getValue() internal view returns (uint256 _totalUSD) {\n        // obtain amounts of tokens in both reserves.\n        (uint112 _token0, uint112 _token1, ) = LPTContract.getReserves();\n\n        // obtain total USD value\n        if (_position == 0) {\n            _totalUSD = _token0 * 2; // pricing();\n        } else {\n            _totalUSD = _token1 * 2;\n        }\n\n        // Token Decimal Normalization\n        //\n        // The following block ensures that all baseAsset valuations follow consistency with decimals\n        // and match the 18 decimals used by UND. This block also solves a potential vulnerability,\n        // where a baseAsset pair which contains beyond 18 decimals could be used to calculate significantly\n        // more UND (by orders of 10). Likewise, baseAssets such as USDC or USDT with 6 decimals would also \n        // result in far less UND minted than desired.\n        //\n        // this should only happen if baseAsset decimals is NOT 18.\n        if (baseAssetDecimal != 18) {\n            \n            uint8 difference;\n\n            // first case: tokenDecimal is smaller than 18\n            // for baseAssets with less than 18 decimals\n            if (baseAssetDecimal < 18 && baseAssetDecimal >= 0) {\n\n                // calculate amount of decimals under 18\n                difference = 18 - baseAssetDecimal;\n\n                // adds decimals to match 18\n                _totalUSD = _totalUSD * (10 ** uint256(difference));\n            }\n\n            // second case: tokenDecimal is greater than 18\n            // for tokens with more than 18 decimals \n            else if (baseAssetDecimal > 18) {\n\n                // caclulate amount of decimals over 18\n                difference = baseAssetDecimal - 18;\n\n                // removes decimals to match 18\n                _totalUSD = _totalUSD / (10 ** uint256(difference));\n            }\n        }\n\n    }\n\n    // calls transfer only, for use with non-permit lock function\n    function transferLPT(uint256 amount) internal {\n        require(LPTContract.transferFrom(msg.sender, address(this), amount), \"LLC: Trasfer From failed\");\n\n    }\n\n    // calls permit, then transfer\n    function transferLPTPermit(address user, uint256 amount, uint deadline, uint8 v, bytes32 r, bytes32 s) internal {\n        LPTContract.permit(user, address(this), amount, deadline, v, r, s);\n        require(LPTContract.transferFrom(msg.sender, address(this), amount), \"LLC: Transfer From failed\");\n        \n    }\n\n    // Burn Path\n    // \n    // allows for partial loan payment by using the ratio of LPtokens to unlock and total LPtokens locked\n    function unlockLPT (uint256 LPToken) public {\n        require (_tokensLocked[msg.sender] >= LPToken, \"Insufficient liquidity locked\");\n        require (LPToken > 0, \"Cannot unlock nothing\");\n\n        // Burning of UND will happen first\n        valuingContract.unboundRemove(LPToken, _tokensLocked[msg.sender], msg.sender, uToken);\n\n        // update mapping\n        _tokensLocked[msg.sender] = _tokensLocked[msg.sender].sub(LPToken);\n        \n        // send LP tokens back to user\n        require(LPTContract.transfer(msg.sender, LPToken), \"LLC: Transfer Failed\");\n\n        // emit unlockLPT event\n        emit UnlockLPT(LPToken, msg.sender, uToken);\n        \n    }\n    \n    function tokensLocked(address account) public view returns (uint256) {\n        return _tokensLocked[account];\n    }\n\n    // onlyOwner Functions\n\n    // Claim - remove any airdropped tokens\n    // currently sends all tokens to \"to\" address (in param)\n    function claimTokens(address _tokenAddr, address to) public onlyOwner {\n        require(_tokenAddr != pair, \"Cannot move LP tokens\");\n        uint256 tokenBal = IERC20_2(_tokenAddr).balanceOf(address(this));\n        require(IERC20_2(_tokenAddr).transfer(to, tokenBal), \"LLC: Transfer Failed\");\n    }\n\n    // Kill Switch - deactivate locking of LPT\n    function disableLock() public onlyOwner {\n        killSwitch = !killSwitch;\n        emit KillSwitch(killSwitch);\n    }\n\n    // Checks if sender is owner\n    function isOwner() public view returns (bool) {\n        return msg.sender == _owner;\n    }\n\n    // Changes owner\n    function setOwner(address _newOwner) public onlyOwner {\n        _owner = _newOwner;\n    }\n\n    // Sets new Valuing Address\n    function setValuingAddress (address _newValuing) public onlyOwner {\n        valuingContract =IValuing_01(_newValuing);\n    }\n}",
  "sourcePath": "/Users/tomohiro/Documents/Projects/unbound/UnboundContracts/contracts/LiquidityLockContracts/LLC_EthDai.sol",
  "compiler": {
    "name": "solc",
    "version": "0.6.6+commit.6c089d02.Emscripten.clang"
  },
  "schemaVersion": "3.2.0",
  "updatedAt": "2020-11-05T19:22:59.209Z",
  "devdoc": {
    "methods": {}
  },
  "userdoc": {
    "methods": {}
  }
}