{
  "contractName": "UnboundDollar",
  "abi": [
    {
      "inputs": [
        {
          "internalType": "string",
          "name": "tokenName",
          "type": "string"
        },
        {
          "internalType": "string",
          "name": "tokenSymbol",
          "type": "string"
        },
        {
          "internalType": "address",
          "name": "Safu",
          "type": "address"
        },
        {
          "internalType": "address",
          "name": "devFund",
          "type": "address"
        }
      ],
      "stateMutability": "nonpayable",
      "type": "constructor"
    },
    {
      "anonymous": false,
      "inputs": [
        {
          "indexed": true,
          "internalType": "address",
          "name": "newAdmin",
          "type": "address"
        }
      ],
      "name": "AdminChanged",
      "type": "event"
    },
    {
      "anonymous": false,
      "inputs": [
        {
          "indexed": true,
          "internalType": "address",
          "name": "owner",
          "type": "address"
        },
        {
          "indexed": true,
          "internalType": "address",
          "name": "spender",
          "type": "address"
        },
        {
          "indexed": false,
          "internalType": "uint256",
          "name": "value",
          "type": "uint256"
        }
      ],
      "name": "Approval",
      "type": "event"
    },
    {
      "anonymous": false,
      "inputs": [
        {
          "indexed": false,
          "internalType": "address",
          "name": "user",
          "type": "address"
        },
        {
          "indexed": false,
          "internalType": "uint256",
          "name": "burned",
          "type": "uint256"
        }
      ],
      "name": "Burn",
      "type": "event"
    },
    {
      "anonymous": false,
      "inputs": [
        {
          "indexed": true,
          "internalType": "address",
          "name": "oldAdmin",
          "type": "address"
        },
        {
          "indexed": true,
          "internalType": "address",
          "name": "newAdmin",
          "type": "address"
        }
      ],
      "name": "ChangingAdmin",
      "type": "event"
    },
    {
      "anonymous": false,
      "inputs": [
        {
          "indexed": false,
          "internalType": "address",
          "name": "user",
          "type": "address"
        },
        {
          "indexed": false,
          "internalType": "uint256",
          "name": "newMint",
          "type": "uint256"
        }
      ],
      "name": "Mint",
      "type": "event"
    },
    {
      "anonymous": false,
      "inputs": [
        {
          "indexed": true,
          "internalType": "address",
          "name": "newDevAddr",
          "type": "address"
        }
      ],
      "name": "NewDevFund",
      "type": "event"
    },
    {
      "anonymous": false,
      "inputs": [
        {
          "indexed": true,
          "internalType": "address",
          "name": "newSafuAddr",
          "type": "address"
        }
      ],
      "name": "NewSafu",
      "type": "event"
    },
    {
      "anonymous": false,
      "inputs": [
        {
          "indexed": false,
          "internalType": "uint256",
          "name": "newRate",
          "type": "uint256"
        }
      ],
      "name": "NewSafuShare",
      "type": "event"
    },
    {
      "anonymous": false,
      "inputs": [
        {
          "indexed": false,
          "internalType": "uint256",
          "name": "newRate",
          "type": "uint256"
        }
      ],
      "name": "NewStakeShare",
      "type": "event"
    },
    {
      "anonymous": false,
      "inputs": [
        {
          "indexed": true,
          "internalType": "address",
          "name": "newStakingAddr",
          "type": "address"
        }
      ],
      "name": "NewStaking",
      "type": "event"
    },
    {
      "anonymous": false,
      "inputs": [
        {
          "indexed": true,
          "internalType": "address",
          "name": "newValuingAddr",
          "type": "address"
        }
      ],
      "name": "NewValuator",
      "type": "event"
    },
    {
      "anonymous": false,
      "inputs": [
        {
          "indexed": true,
          "internalType": "address",
          "name": "from",
          "type": "address"
        },
        {
          "indexed": true,
          "internalType": "address",
          "name": "to",
          "type": "address"
        },
        {
          "indexed": false,
          "internalType": "uint256",
          "name": "value",
          "type": "uint256"
        }
      ],
      "name": "Transfer",
      "type": "event"
    },
    {
      "inputs": [],
      "name": "DOMAIN_SEPARATOR",
      "outputs": [
        {
          "internalType": "bytes32",
          "name": "",
          "type": "bytes32"
        }
      ],
      "stateMutability": "view",
      "type": "function"
    },
    {
      "inputs": [],
      "name": "PERMIT_TYPEHASH",
      "outputs": [
        {
          "internalType": "bytes32",
          "name": "",
          "type": "bytes32"
        }
      ],
      "stateMutability": "view",
      "type": "function"
    },
    {
      "inputs": [
        {
          "internalType": "address",
          "name": "",
          "type": "address"
        }
      ],
      "name": "nonces",
      "outputs": [
        {
          "internalType": "uint256",
          "name": "",
          "type": "uint256"
        }
      ],
      "stateMutability": "view",
      "type": "function"
    },
    {
      "inputs": [],
      "name": "safuSharesOfStoredFee",
      "outputs": [
        {
          "internalType": "uint256",
          "name": "",
          "type": "uint256"
        }
      ],
      "stateMutability": "view",
      "type": "function"
    },
    {
      "inputs": [],
      "name": "stakeShares",
      "outputs": [
        {
          "internalType": "uint256",
          "name": "",
          "type": "uint256"
        }
      ],
      "stateMutability": "view",
      "type": "function"
    },
    {
      "inputs": [],
      "name": "storedFee",
      "outputs": [
        {
          "internalType": "uint256",
          "name": "",
          "type": "uint256"
        }
      ],
      "stateMutability": "view",
      "type": "function"
    },
    {
      "inputs": [],
      "name": "name",
      "outputs": [
        {
          "internalType": "string",
          "name": "",
          "type": "string"
        }
      ],
      "stateMutability": "view",
      "type": "function"
    },
    {
      "inputs": [],
      "name": "symbol",
      "outputs": [
        {
          "internalType": "string",
          "name": "",
          "type": "string"
        }
      ],
      "stateMutability": "view",
      "type": "function"
    },
    {
      "inputs": [],
      "name": "decimals",
      "outputs": [
        {
          "internalType": "uint256",
          "name": "",
          "type": "uint256"
        }
      ],
      "stateMutability": "view",
      "type": "function"
    },
    {
      "inputs": [],
      "name": "totalSupply",
      "outputs": [
        {
          "internalType": "uint256",
          "name": "",
          "type": "uint256"
        }
      ],
      "stateMutability": "view",
      "type": "function"
    },
    {
      "inputs": [
        {
          "internalType": "address",
          "name": "account",
          "type": "address"
        }
      ],
      "name": "balanceOf",
      "outputs": [
        {
          "internalType": "uint256",
          "name": "",
          "type": "uint256"
        }
      ],
      "stateMutability": "view",
      "type": "function"
    },
    {
      "inputs": [],
      "name": "stakeAddr",
      "outputs": [
        {
          "internalType": "address",
          "name": "",
          "type": "address"
        }
      ],
      "stateMutability": "view",
      "type": "function"
    },
    {
      "inputs": [],
      "name": "safuAddr",
      "outputs": [
        {
          "internalType": "address",
          "name": "",
          "type": "address"
        }
      ],
      "stateMutability": "view",
      "type": "function"
    },
    {
      "inputs": [],
      "name": "devFundAddr",
      "outputs": [
        {
          "internalType": "address",
          "name": "",
          "type": "address"
        }
      ],
      "stateMutability": "view",
      "type": "function"
    },
    {
      "inputs": [],
      "name": "valuator",
      "outputs": [
        {
          "internalType": "address",
          "name": "",
          "type": "address"
        }
      ],
      "stateMutability": "view",
      "type": "function"
    },
    {
      "inputs": [
        {
          "internalType": "address",
          "name": "owner",
          "type": "address"
        },
        {
          "internalType": "address",
          "name": "spender",
          "type": "address"
        },
        {
          "internalType": "uint256",
          "name": "value",
          "type": "uint256"
        },
        {
          "internalType": "uint256",
          "name": "deadline",
          "type": "uint256"
        },
        {
          "internalType": "uint8",
          "name": "v",
          "type": "uint8"
        },
        {
          "internalType": "bytes32",
          "name": "r",
          "type": "bytes32"
        },
        {
          "internalType": "bytes32",
          "name": "s",
          "type": "bytes32"
        }
      ],
      "name": "permit",
      "outputs": [],
      "stateMutability": "nonpayable",
      "type": "function"
    },
    {
      "inputs": [
        {
          "internalType": "address",
          "name": "recipient",
          "type": "address"
        },
        {
          "internalType": "uint256",
          "name": "amount",
          "type": "uint256"
        }
      ],
      "name": "transfer",
      "outputs": [
        {
          "internalType": "bool",
          "name": "",
          "type": "bool"
        }
      ],
      "stateMutability": "nonpayable",
      "type": "function"
    },
    {
      "inputs": [
        {
          "internalType": "address",
          "name": "sender",
          "type": "address"
        },
        {
          "internalType": "address",
          "name": "recipient",
          "type": "address"
        },
        {
          "internalType": "uint256",
          "name": "amount",
          "type": "uint256"
        }
      ],
      "name": "transferFrom",
      "outputs": [
        {
          "internalType": "bool",
          "name": "",
          "type": "bool"
        }
      ],
      "stateMutability": "nonpayable",
      "type": "function"
    },
    {
      "inputs": [
        {
          "internalType": "address",
          "name": "owner",
          "type": "address"
        },
        {
          "internalType": "address",
          "name": "spender",
          "type": "address"
        }
      ],
      "name": "allowance",
      "outputs": [
        {
          "internalType": "uint256",
          "name": "",
          "type": "uint256"
        }
      ],
      "stateMutability": "view",
      "type": "function"
    },
    {
      "inputs": [
        {
          "internalType": "address",
          "name": "spender",
          "type": "address"
        },
        {
          "internalType": "uint256",
          "name": "amount",
          "type": "uint256"
        }
      ],
      "name": "approve",
      "outputs": [
        {
          "internalType": "bool",
          "name": "",
          "type": "bool"
        }
      ],
      "stateMutability": "nonpayable",
      "type": "function"
    },
    {
      "inputs": [
        {
          "internalType": "address",
          "name": "spender",
          "type": "address"
        },
        {
          "internalType": "uint256",
          "name": "addedValue",
          "type": "uint256"
        }
      ],
      "name": "increaseAllowance",
      "outputs": [
        {
          "internalType": "bool",
          "name": "",
          "type": "bool"
        }
      ],
      "stateMutability": "nonpayable",
      "type": "function"
    },
    {
      "inputs": [
        {
          "internalType": "address",
          "name": "spender",
          "type": "address"
        },
        {
          "internalType": "uint256",
          "name": "subtractedValue",
          "type": "uint256"
        }
      ],
      "name": "decreaseAllowance",
      "outputs": [
        {
          "internalType": "bool",
          "name": "",
          "type": "bool"
        }
      ],
      "stateMutability": "nonpayable",
      "type": "function"
    },
    {
      "inputs": [
        {
          "internalType": "address",
          "name": "account",
          "type": "address"
        },
        {
          "internalType": "uint256",
          "name": "loanAmount",
          "type": "uint256"
        },
        {
          "internalType": "uint256",
          "name": "feeAmount",
          "type": "uint256"
        },
        {
          "internalType": "address",
          "name": "LLCAddr",
          "type": "address"
        }
      ],
      "name": "mint",
      "outputs": [],
      "stateMutability": "nonpayable",
      "type": "function"
    },
    {
      "inputs": [
        {
          "internalType": "address",
          "name": "account",
          "type": "address"
        },
        {
          "internalType": "uint256",
          "name": "toBurn",
          "type": "uint256"
        },
        {
          "internalType": "address",
          "name": "LLCAddr",
          "type": "address"
        }
      ],
      "name": "burn",
      "outputs": [],
      "stateMutability": "nonpayable",
      "type": "function"
    },
    {
      "inputs": [
        {
          "internalType": "address",
          "name": "user",
          "type": "address"
        },
        {
          "internalType": "address",
          "name": "lockLocation",
          "type": "address"
        }
      ],
      "name": "checkLoan",
      "outputs": [
        {
          "internalType": "uint256",
          "name": "owed",
          "type": "uint256"
        }
      ],
      "stateMutability": "view",
      "type": "function"
    },
    {
      "inputs": [],
      "name": "distributeFee",
      "outputs": [
        {
          "internalType": "bool",
          "name": "",
          "type": "bool"
        }
      ],
      "stateMutability": "nonpayable",
      "type": "function"
    },
    {
      "inputs": [
        {
          "internalType": "uint256",
          "name": "rate",
          "type": "uint256"
        }
      ],
      "name": "changeSafuShare",
      "outputs": [],
      "stateMutability": "nonpayable",
      "type": "function"
    },
    {
      "inputs": [
        {
          "internalType": "uint256",
          "name": "rate",
          "type": "uint256"
        }
      ],
      "name": "changeStakeShare",
      "outputs": [],
      "stateMutability": "nonpayable",
      "type": "function"
    },
    {
      "inputs": [
        {
          "internalType": "address",
          "name": "newStaking",
          "type": "address"
        }
      ],
      "name": "changeStaking",
      "outputs": [],
      "stateMutability": "nonpayable",
      "type": "function"
    },
    {
      "inputs": [
        {
          "internalType": "address",
          "name": "newSafuFund",
          "type": "address"
        }
      ],
      "name": "changeSafuFund",
      "outputs": [],
      "stateMutability": "nonpayable",
      "type": "function"
    },
    {
      "inputs": [
        {
          "internalType": "address",
          "name": "newDevFund",
          "type": "address"
        }
      ],
      "name": "changeDevFund",
      "outputs": [],
      "stateMutability": "nonpayable",
      "type": "function"
    },
    {
      "inputs": [
        {
          "internalType": "address",
          "name": "newValuator",
          "type": "address"
        }
      ],
      "name": "changeValuator",
      "outputs": [],
      "stateMutability": "nonpayable",
      "type": "function"
    },
    {
      "inputs": [],
      "name": "isOwner",
      "outputs": [
        {
          "internalType": "bool",
          "name": "",
          "type": "bool"
        }
      ],
      "stateMutability": "view",
      "type": "function"
    },
    {
      "inputs": [
        {
          "internalType": "address",
          "name": "_newOwner",
          "type": "address"
        }
      ],
      "name": "setOwner",
      "outputs": [],
      "stateMutability": "nonpayable",
      "type": "function"
    },
    {
      "inputs": [],
      "name": "claimOwner",
      "outputs": [],
      "stateMutability": "nonpayable",
      "type": "function"
    },
    {
      "inputs": [
        {
          "internalType": "address",
          "name": "_tokenAddr",
          "type": "address"
        },
        {
          "internalType": "address",
          "name": "to",
          "type": "address"
        }
      ],
      "name": "claimTokens",
      "outputs": [],
      "stateMutability": "nonpayable",
      "type": "function"
    }
  ],
  "bytecode": "0x60806040526010805460ff60a01b191690553480156200001e57600080fd5b50604051620024f6380380620024f6833981810160405260808110156200004457600080fd5b81019080805160405193929190846401000000008211156200006557600080fd5b9083019060208201858111156200007b57600080fd5b82516401000000008111828201881017156200009657600080fd5b82525081516020918201929091019080838360005b83811015620000c5578181015183820152602001620000ab565b50505050905090810190601f168015620000f35780820380516001836020036101000a031916815260200191505b50604052602001805160405193929190846401000000008211156200011757600080fd5b9083019060208201858111156200012d57600080fd5b82516401000000008111828201881017156200014857600080fd5b82525081516020918201929091019080838360005b83811015620001775781810151838201526020016200015d565b50505050905090810190601f168015620001a55780820380516001836020036101000a031916815260200191505b506040908152602082015191015190925090506001600160a01b03821662000214576040805162461bcd60e51b815260206004820152601a60248201527f43616e6e6f74206368616e676520746f20302061646472657373000000000000604482015290519081900360640190fd5b6001600160a01b03811662000270576040805162461bcd60e51b815260206004820152601a60248201527f43616e6e6f74206368616e676520746f20302061646472657373000000000000604482015290519081900360640190fd5b83516200028590600390602087019062000399565b5082516200029b90600490602086019062000399565b506012600555600f8054336001600160a01b03199182161790915560006002556009805482166001600160a01b03948516908117909155600a8054831693909416929092179092556032600b819055600c556008805490921617905550805160209182012060408051808201825260018152603160f81b9084015280517f8b73c3c69bb8fe3d512ecc4cf759cc79239f7b179b0ffacaa9a75d522b39400f81850152808201929092527fc89efdaa54c0f20c7adf612882df0950f5a951637e0307cdcb4c672f298b8bc660608301524660808301523060a0808401919091528151808403909101815260c09092019052805191012060065562000445565b828054600181600116156101000203166002900490600052602060002090601f016020900481019282620003d157600085556200041c565b82601f10620003ec57805160ff19168380011785556200041c565b828001600101855582156200041c579182015b828111156200041c578251825591602001919060010190620003ff565b506200042a9291506200042e565b5090565b5b808211156200042a57600081556001016200042f565b6120a180620004556000396000f3fe608060405234801561001057600080fd5b506004361061021c5760003560e01c806370a0823111610125578063a457c2d7116100ad578063bd0ba4411161007c578063bd0ba44114610606578063d505accf1461060e578063db22d3991461065f578063dd62ed3e14610667578063f74bfe8e146106955761021c565b8063a457c2d714610552578063a9059cbb1461057e578063b8ce670d146105aa578063ba139763146105e05761021c565b80637ecebe00116100f45780637ecebe00146104f75780638b86f67a1461051d5780638f32d59b1461052557806395d89b411461052d578063a0fbc6a8146105355761021c565b806370a082311461049b57806371634e32146104c1578063741733b0146104c95780637d558c46146104d15761021c565b806326c4e60d116101a85780633644e515116101775780633644e5151461040b57806339509351146104135780633bd1adec1461043f57806366ca44881461044757806369ffa08a1461046d5761021c565b806326c4e60d146103d65780632eb96c9a146103de57806330adf81f146103fb578063313ce567146104035761021c565b806313af4035116101ef57806313af40351461034657806315a514991461036c57806318160ddd146103905780631b4d84b41461039857806323b872dd146103a05761021c565b806305a7bed11461022157806306fdde0314610249578063095ea7b3146102c65780630d5a771014610306575b600080fd5b6102476004803603602081101561023757600080fd5b50356001600160a01b03166106cf565b005b6102516107a9565b6040805160208082528351818301528351919283929083019185019080838360005b8381101561028b578181015183820152602001610273565b50505050905090810190601f1680156102b85780820380516001836020036101000a031916815260200191505b509250505060405180910390f35b6102f2600480360360408110156102dc57600080fd5b506001600160a01b03813516906020013561083f565b604080519115158252519081900360200190f35b6103346004803603604081101561031c57600080fd5b506001600160a01b0381358116916020013516610856565b60408051918252519081900360200190f35b6102476004803603602081101561035c57600080fd5b50356001600160a01b0316610881565b61037461096b565b604080516001600160a01b039092168252519081900360200190f35b61033461097a565b610334610980565b6102f2600480360360608110156103b657600080fd5b506001600160a01b03813581169160208101359091169060400135610986565b6102f26109ef565b610247600480360360208110156103f457600080fd5b5035610b73565b610334610c4b565b610334610c6f565b610334610c75565b6102f26004803603604081101561042957600080fd5b506001600160a01b038135169060200135610c7b565b610247610cb1565b6102476004803603602081101561045d57600080fd5b50356001600160a01b0316610dc3565b6102476004803603604081101561048357600080fd5b506001600160a01b0381358116916020013516610e9d565b610334600480360360208110156104b157600080fd5b50356001600160a01b0316611037565b610334611052565b610374611058565b610247600480360360208110156104e757600080fd5b50356001600160a01b0316611067565b6103346004803603602081101561050d57600080fd5b50356001600160a01b0316611141565b610334611153565b6102f2611159565b61025161116a565b6102476004803603602081101561054b57600080fd5b50356111cb565b6102f26004803603604081101561056857600080fd5b506001600160a01b0381351690602001356112a3565b6102f26004803603604081101561059457600080fd5b506001600160a01b0381351690602001356112f2565b610247600480360360608110156105c057600080fd5b506001600160a01b038135811691602081013591604090910135166112ff565b610247600480360360208110156105f657600080fd5b50356001600160a01b0316611537565b610374611611565b610247600480360360e081101561062457600080fd5b506001600160a01b03813581169160208101359091169060408101359060608101359060ff6080820135169060a08101359060c00135611620565b610374611826565b6103346004803603604081101561067d57600080fd5b506001600160a01b0381358116916020013516611835565b610247600480360360808110156106ab57600080fd5b506001600160a01b0381358116916020810135916040820135916060013516611860565b6106d7611159565b610716576040805162461bcd60e51b81526020600482018190526024820152600080516020611f98833981519152604482015290519081900360640190fd5b6001600160a01b03811661075f576040805162461bcd60e51b815260206004820152601a6024820152600080516020611f09833981519152604482015290519081900360640190fd5b600a80546001600160a01b0319166001600160a01b0383169081179091556040517fc620972030bd08ae04b9c18d07b4319566553796447eee7411a1c36effb4e62e90600090a250565b60038054604080516020601f60026000196101006001881615020190951694909404938401819004810282018101909252828152606093909290918301828280156108355780601f1061080a57610100808354040283529160200191610835565b820191906000526020600020905b81548152906001019060200180831161081857829003601f168201915b5050505050905090565b600061084c338484611a50565b5060015b92915050565b6001600160a01b039182166000908152600e6020908152604080832093909416825291909152205490565b610889611159565b6108c8576040805162461bcd60e51b81526020600482018190526024820152600080516020611f98833981519152604482015290519081900360640190fd5b6001600160a01b038116610911576040805162461bcd60e51b815260206004820152601a6024820152600080516020611f09833981519152604482015290519081900360640190fd5b6010805460ff60a01b196001600160a01b0384166001600160a01b0319909216821716600160a01b1790915560405133907f94e450f29e5604cdd3f28d7f798cceba84c415897226a242583aced8368a6d3890600090a350565b6009546001600160a01b031690565b60025490565b600c5481565b6000610993848484611b3c565b6109e584336109e085604051806060016040528060288152602001611f70602891396001600160a01b038a1660009081526001602090815260408083203384529091529020549190611c8c565b611a50565b5060019392505050565b600080600d5411610a47576040805162461bcd60e51b815260206004820152601e60248201527f5468657265206973206e6f7468696e6720746f20646973747269627574650000604482015290519081900360640190fd5b6000610a6b6064610a65600b54600d54611d2390919063ffffffff16565b90611d83565b90506000610a8482600d54611dea90919063ffffffff16565b90506000610aa26064610a65600c5485611d2390919063ffffffff16565b6009546001600160a01b0316600090815260208190526040902054909150610aca9082611e47565b6009546001600160a01b039081166000908152602081905260408082209390935560085490911681522054610aff9084611e47565b6008546001600160a01b0316600090815260208190526040902055610b48610b278383611dea565b600a546001600160a01b031660009081526020819052604090205490611e47565b600a546001600160a01b0316600090815260208190526040812091909155600d555060019250505090565b610b7b611159565b610bba576040805162461bcd60e51b81526020600482018190526024820152600080516020611f98833981519152604482015290519081900360640190fd5b6064811115610c10576040805162461bcd60e51b815260206004820152601c60248201527f546f6f206269672076616c756520666f72205361667520536861726500000000604482015290519081900360640190fd5b600c8190556040805182815290517fcb3d38d3f5aac46d0ce88781e7613337d9233e4fe06a97121b14ea019bc512499181900360200190a150565b7f6e71edae12b1b97f4d1f60370fef10105fa2faae0126114a169c64845d6126c981565b60055490565b60065481565b3360008181526001602090815260408083206001600160a01b0387168452909152812054909161084c9185906109e09086611e47565b601054600160a01b900460ff16610d0f576040805162461bcd60e51b815260206004820152601a60248201527f4368616e676520776173206e6f7420696e697469616c697a6564000000000000604482015290519081900360640190fd5b6010546001600160a01b03163314610d6e576040805162461bcd60e51b815260206004820152601960248201527f596f7520617265206e6f742070656e64696e67206f776e657200000000000000604482015290519081900360640190fd5b60108054600f80546001600160a01b0319166001600160a01b03831617905560ff60a01b1916905560405133907f7ce7ec0b50378fb6c0186ffb5f48325f6593fcb4ca4386f21861af3129188f5c90600090a2565b610dcb611159565b610e0a576040805162461bcd60e51b81526020600482018190526024820152600080516020611f98833981519152604482015290519081900360640190fd5b6001600160a01b038116610e53576040805162461bcd60e51b815260206004820152601a6024820152600080516020611f09833981519152604482015290519081900360640190fd5b600980546001600160a01b0319166001600160a01b0383169081179091556040517f945bf13ea4422069b1113f46d616024ba6ed21a165abd6747af02a04ae589f6a90600090a250565b610ea5611159565b610ee4576040805162461bcd60e51b81526020600482018190526024820152600080516020611f98833981519152604482015290519081900360640190fd5b6000826001600160a01b03166370a08231306040518263ffffffff1660e01b815260040180826001600160a01b0316815260200191505060206040518083038186803b158015610f3357600080fd5b505afa158015610f47573d6000803e3d6000fd5b505050506040513d6020811015610f5d57600080fd5b50516040805163a9059cbb60e01b81526001600160a01b0385811660048301526024820184905291519293509085169163a9059cbb916044808201926020929091908290030181600087803b158015610fb557600080fd5b505af1158015610fc9573d6000803e3d6000fd5b505050506040513d6020811015610fdf57600080fd5b5051611032576040805162461bcd60e51b815260206004820181905260248201527f554e443a206d6973632e20546f6b656e205472616e73666572204661696c6564604482015290519081900360640190fd5b505050565b6001600160a01b031660009081526020819052604090205490565b600d5481565b6008546001600160a01b031690565b61106f611159565b6110ae576040805162461bcd60e51b81526020600482018190526024820152600080516020611f98833981519152604482015290519081900360640190fd5b6001600160a01b0381166110f7576040805162461bcd60e51b815260206004820152601a6024820152600080516020611f09833981519152604482015290519081900360640190fd5b600880546001600160a01b0319166001600160a01b0383169081179091556040517f2c6713130292411e5e1bab429ca8ac9d5028b9e81f3a25fdadd4532bc4f875d890600090a250565b60076020526000908152604090205481565b600b5481565b600f546001600160a01b0316331490565b60048054604080516020601f60026000196101006001881615020190951694909404938401819004810282018101909252828152606093909290918301828280156108355780601f1061080a57610100808354040283529160200191610835565b6111d3611159565b611212576040805162461bcd60e51b81526020600482018190526024820152600080516020611f98833981519152604482015290519081900360640190fd5b6064811115611268576040805162461bcd60e51b815260206004820152601d60248201527f546f6f206269672076616c756520666f72205374616b65207368617265000000604482015290519081900360640190fd5b600b8190556040805182815290517f4c384613edd6b6aa40fc39cee98b1607f7b4b778169693dd25f926b71f5992479181900360200190a150565b600061084c33846109e085604051806060016040528060258152602001612047602591393360009081526001602090815260408083206001600160a01b038d1684529091529020549190611c8c565b600061084c338484611b3c565b6001600160a01b0383166113445760405162461bcd60e51b8152600401808060200182810382526021815260200180611fb86021913960400191505060405180910390fd5b6011546001600160a01b0316331461138d5760405162461bcd60e51b81526004018080602001828103825260258152602001806120226025913960400191505060405180910390fd5b6001600160a01b038084166000908152600e60209081526040808320938516835292905220546113f7576040805162461bcd60e51b815260206004820152601060248201526f2cb7ba903430bb32903737903637b0b760811b604482015290519081900360640190fd5b604080518082018252601781527f45524332303a204f766572666c6f7720547269676765720000000000000000006020808301919091526001600160a01b038087166000908152600e835284812091861681529152919091205461145c918490611c8c565b6001600160a01b038085166000908152600e602090815260408083209386168352928152908290209290925580516060810190915260228082526114c59285929190611ec5908301396001600160a01b0386166000908152602081905260409020549190611c8c565b6001600160a01b0384166000908152602081905260409020556002546114eb9083611dea565b600255604080516001600160a01b03851681526020810184905281517fcc16f5dbb4873280815c1ee09dbd06736cffcc184412cf7a71a0fdb75d397ca5929181900390910190a1505050565b61153f611159565b61157e576040805162461bcd60e51b81526020600482018190526024820152600080516020611f98833981519152604482015290519081900360640190fd5b6001600160a01b0381166115c7576040805162461bcd60e51b815260206004820152601a6024820152600080516020611f09833981519152604482015290519081900360640190fd5b601180546001600160a01b0319166001600160a01b0383169081179091556040517f465a30ee3455bf907418395cd0f35b5f5a409bdcd3b7082053ca5694f64ce29090600090a250565b6011546001600160a01b031690565b4284101561166e576040805162461bcd60e51b8152602060048201526016602482015275155b989bdd5b99111bdb1b185c8e881156141254915160521b604482015290519081900360640190fd5b6006546001600160a01b0380891660008181526007602090815260408083208054600180820190925582517f6e71edae12b1b97f4d1f60370fef10105fa2faae0126114a169c64845d6126c98186015280840196909652958d166060860152608085018c905260a085019590955260c08085018b90528151808603909101815260e08501825280519083012061190160f01b6101008601526101028501969096526101228085019690965280518085039096018652610142840180825286519683019690962095839052610162840180825286905260ff89166101828501526101a284018890526101c28401879052519193926101e280820193601f1981019281900390910190855afa158015611789573d6000803e3d6000fd5b5050604051601f1901519150506001600160a01b038116158015906117bf5750886001600160a01b0316816001600160a01b0316145b611810576040805162461bcd60e51b815260206004820181905260248201527f556e626f756e64446f6c6c61723a20494e56414c49445f5349474e4154555245604482015290519081900360640190fd5b61181b898989611a50565b505050505050505050565b600a546001600160a01b031690565b6001600160a01b03918216600090815260016020908152604080832093909416825291909152205490565b6001600160a01b0384166118bb576040805162461bcd60e51b815260206004820152601f60248201527f45524332303a206d696e7420746f20746865207a65726f206164647265737300604482015290519081900360640190fd5b6011546001600160a01b031633146119045760405162461bcd60e51b81526004018080602001828103825260258152602001806120226025913960400191505060405180910390fd5b60008211611952576040805162461bcd60e51b8152602060048201526016602482015275554e443a204e6f7420616c6c6f77656420302066656560501b604482015290519081900360640190fd5b61197e61195f8484611dea565b6001600160a01b03861660009081526020819052604090205490611e47565b6001600160a01b038516600090815260208190526040902055600d546119a49083611e47565b600d556002546119b49084611e47565b6002556001600160a01b038085166000908152600e60209081526040808320938516835292905220546119e79084611e47565b6001600160a01b038086166000818152600e6020908152604080832094871683529381529083902093909355815190815291820185905280517f0f6798a560793a54c3bcfe86a93cde1e73087d944c0ea20544137d41213968859281900390910190a150505050565b6001600160a01b038316611a955760405162461bcd60e51b8152600401808060200182810382526024815260200180611ffe6024913960400191505060405180910390fd5b6001600160a01b038216611ada5760405162461bcd60e51b8152600401808060200182810382526022815260200180611ee76022913960400191505060405180910390fd5b6001600160a01b03808416600081815260016020908152604080832094871680845294825291829020859055815185815291517f8c5be1e5ebec7d5bd14f71427d1e84f3dd0314c0f7b2291e5b200ac8c7c3b9259281900390910190a3505050565b6001600160a01b038316611b815760405162461bcd60e51b8152600401808060200182810382526025815260200180611fd96025913960400191505060405180910390fd5b6001600160a01b038216611bc65760405162461bcd60e51b8152600401808060200182810382526023815260200180611ea26023913960400191505060405180910390fd5b611c0381604051806060016040528060268152602001611f29602691396001600160a01b0386166000908152602081905260409020549190611c8c565b6001600160a01b038085166000908152602081905260408082209390935590841681522054611c329082611e47565b6001600160a01b038084166000818152602081815260409182902094909455805185815290519193928716927fddf252ad1be2c89b69c2b068fc378daa952ba7f163c4a11628f55a4df523b3ef92918290030190a3505050565b60008184841115611d1b5760405162461bcd60e51b81526004018080602001828103825283818151815260200191508051906020019080838360005b83811015611ce0578181015183820152602001611cc8565b50505050905090810190601f168015611d0d5780820380516001836020036101000a031916815260200191505b509250505060405180910390fd5b505050900390565b600082611d3257506000610850565b82820282848281611d3f57fe5b0414611d7c5760405162461bcd60e51b8152600401808060200182810382526021815260200180611f4f6021913960400191505060405180910390fd5b9392505050565b6000808211611dd9576040805162461bcd60e51b815260206004820152601a60248201527f536166654d6174683a206469766973696f6e206279207a65726f000000000000604482015290519081900360640190fd5b818381611de257fe5b049392505050565b600082821115611e41576040805162461bcd60e51b815260206004820152601e60248201527f536166654d6174683a207375627472616374696f6e206f766572666c6f770000604482015290519081900360640190fd5b50900390565b600082820183811015611d7c576040805162461bcd60e51b815260206004820152601b60248201527f536166654d6174683a206164646974696f6e206f766572666c6f770000000000604482015290519081900360640190fdfe45524332303a207472616e7366657220746f20746865207a65726f206164647265737345524332303a206275726e20616d6f756e7420657863656564732062616c616e636545524332303a20617070726f766520746f20746865207a65726f206164647265737343616e6e6f74206368616e676520746f2030206164647265737300000000000045524332303a207472616e7366657220616d6f756e7420657863656564732062616c616e6365536166654d6174683a206d756c7469706c69636174696f6e206f766572666c6f7745524332303a207472616e7366657220616d6f756e74206578636565647320616c6c6f77616e63654f776e61626c653a2063616c6c6572206973206e6f7420746865206f776e657245524332303a206275726e2066726f6d20746865207a65726f206164647265737345524332303a207472616e736665722066726f6d20746865207a65726f206164647265737345524332303a20617070726f76652066726f6d20746865207a65726f206164647265737343616c6c20646f6573206e6f74206f726967696e6174652066726f6d2056616c7561746f7245524332303a2064656372656173656420616c6c6f77616e63652062656c6f77207a65726fa264697066735822122097ce7d4fe4008f4141feee93cf721811428e478affa8efb9aeb169613d4f67b064736f6c63430007050033",
  "immutableReferences": {},
  "source": "// SPDX-License-Identifier: UNLICENSED\npragma solidity 0.7.5;\n\nimport \"@openzeppelin/contracts/token/ERC20/IERC20.sol\";\nimport \"@openzeppelin/contracts/math/SafeMath.sol\";\nimport \"@openzeppelin/contracts/token/ERC20/SafeERC20.sol\";\n\n// ---------------------------------------------------------------------------------------\n//                                   Unbound Dollar (UND)\n//\n//                                     By: Unbound Finance\n// ---------------------------------------------------------------------------------------\n// This contract holds the erc20 token call UND. This is the token we will be issuing\n// our loans in. This contract contains custom mint and burn functions, only callable from\n// an authorized valuing contract. As this contract will be first to be deployed, the\n// valuing contract must be authorized by owner.\n//\n// The loan fee is computed on minting, and the amount distributed to the UND liquidity pool\n// (as a reward for liquidity holders), the SAFU fund, and the dev fund. Initial split is\n// determined in the constructor. The UND liquidity pool address must be updated on this\n// contract by owner once it is created from the uniswap factory.\n// ----------------------------------------------------------------------------------------\n\ncontract UnboundDollar is IERC20 {\n    using SafeMath for uint256;\n    using SafeERC20 for IERC20;\n\n    event Mint(address user, uint256 newMint);\n    event Burn(address user, uint256 burned);\n\n    // Admin Change in-prog\n    event ChangingAdmin(address indexed oldAdmin, address indexed newAdmin);\n\n    // Admin Changed\n    event AdminChanged(address indexed newAdmin);\n\n    // Admin Events\n    event NewValuator (address indexed newValuingAddr);\n    event NewDevFund (address indexed newDevAddr);\n    event NewSafu (address indexed newSafuAddr);\n    event NewStaking (address indexed newStakingAddr);\n    event NewStakeShare (uint256 newRate);\n    event NewSafuShare (uint256 newRate);\n\n    mapping(address => uint256) private _balances;\n    mapping(address => mapping(address => uint256)) private _allowances;\n\n    uint256 private _totalSupply;\n\n    string private _name;\n    string private _symbol;\n    uint256 private _decimals;\n\n    // PERMIT VARIABLES\n    bytes32 public DOMAIN_SEPARATOR;\n    // keccak256(\"Permit(address owner,address spender,uint256 value,uint256 nonce,uint256 deadline)\");\n    bytes32 public constant PERMIT_TYPEHASH = 0x6e71edae12b1b97f4d1f60370fef10105fa2faae0126114a169c64845d6126c9;\n    mapping(address => uint256) public nonces;\n\n    // staking contract address (40%)\n    address private _stakeAddr;\n\n    // Emergency fund (40%)\n    address private _safuAddr;\n\n    // Dev fund (20%)\n    address private _devFundAddr;\n\n    // Dev Fund split variables\n    uint256 public stakeShares; // % of staking to total fee\n    uint256 public safuSharesOfStoredFee; // % of safu to stored fee\n    uint256 public storedFee;\n\n    // tracks user loan amount in UND. This is the amount of UND they need to pay back to get all locked tokens returned.\n    mapping(address => mapping(address => uint256)) private _loaned;\n\n    //Owner Address\n    address _owner;\n\n    // 2-step owner change variables\n    address private _ownerPending;\n    bool private _isPending = false;\n\n    //Valuator Contract Address\n    address _valuator;\n\n    modifier onlyOwner() {\n        require(isOwner(), \"Ownable: caller is not the owner\");\n        _;\n    }\n\n    constructor(\n        string memory tokenName,\n        string memory tokenSymbol,\n        address Safu,\n        address devFund\n    ) {\n        require(Safu != address(0), \"Cannot change to 0 address\");\n        require(devFund != address(0), \"Cannot change to 0 address\");\n        _name = tokenName;\n        _symbol = tokenSymbol;\n        _decimals = 18;\n        _owner = msg.sender;\n        _totalSupply = 0;\n        _safuAddr = Safu;\n        _devFundAddr = devFund;\n\n        // we will use 50/25/25 split of fees\n        stakeShares = 50;\n        safuSharesOfStoredFee = 50;\n\n        // MUST BE MANUALLY CHANGED TO UND LIQ pool.\n        _stakeAddr = Safu;\n        \n        uint256 chainId;\n        // get chainId of the chain, required for permit\n        \n        assembly {\n            chainId := chainid()\n        }\n        \n        // To verify permit() signature\n        DOMAIN_SEPARATOR = keccak256(\n            abi.encode(\n                keccak256(\"EIP712Domain(string name,string version,uint256 chainId,address verifyingContract)\"),\n                keccak256(bytes(tokenName)),\n                keccak256(bytes(\"1\")),\n                chainId,\n                address(this)\n            )\n        );\n    }\n\n    function name() public view returns (string memory) {\n        return _name;\n    }\n\n    function symbol() public view returns (string memory) {\n        return _symbol;\n    }\n\n    function decimals() public view returns (uint256) {\n        return _decimals;\n    }\n\n    function totalSupply() public view override returns (uint256) {\n        return _totalSupply;\n    }\n\n    function balanceOf(address account) public view override returns (uint256) {\n        return _balances[account];\n    }\n\n    function stakeAddr() public view returns (address) {\n        return _stakeAddr;\n    }\n\n    function safuAddr() public view returns (address) {\n        return _safuAddr;\n    }\n\n    function devFundAddr() public view returns (address) {\n        return _devFundAddr;\n    }\n\n    function valuator() public view returns (address) {\n        return _valuator;\n    }\n\n    //  PERMIT FUNCTION\n    function permit(\n        address owner,\n        address spender,\n        uint256 value,\n        uint256 deadline,\n        uint8 v,\n        bytes32 r,\n        bytes32 s\n    ) external {\n        require(deadline >= block.timestamp, \"UnboundDollar: EXPIRED\");\n        bytes32 digest =\n            keccak256(\n                abi.encodePacked(\n                    \"\\x19\\x01\",\n                    DOMAIN_SEPARATOR,\n                    keccak256(abi.encode(PERMIT_TYPEHASH, owner, spender, value, nonces[owner]++, deadline))\n                )\n            );\n        // check if the data is signed by owner\n        address recoveredAddress = ecrecover(digest, v, r, s);\n        require(recoveredAddress != address(0) && recoveredAddress == owner, \"UnboundDollar: INVALID_SIGNATURE\");\n        _approve(owner, spender, value);\n    }\n\n    // Transfer and transferFrom\n    function transfer(address recipient, uint256 amount) public override returns (bool) {\n        _transfer(msg.sender, recipient, amount);\n        return true;\n    }\n\n    function transferFrom(\n        address sender,\n        address recipient,\n        uint256 amount\n    ) public override returns (bool) {\n        _transfer(sender, recipient, amount);\n        _approve(\n            sender,\n            msg.sender,\n            _allowances[sender][msg.sender].sub(amount, \"ERC20: transfer amount exceeds allowance\")\n        );\n        return true;\n    }\n\n    function _transfer(\n        address sender,\n        address recipient,\n        uint256 amount\n    ) internal {\n        require(sender != address(0), \"ERC20: transfer from the zero address\");\n        require(recipient != address(0), \"ERC20: transfer to the zero address\");\n\n        //_beforeTokenTransfer(sender, recipient, amount);\n\n        _balances[sender] = _balances[sender].sub(amount, \"ERC20: transfer amount exceeds balance\");\n        _balances[recipient] = _balances[recipient].add(amount);\n        emit Transfer(sender, recipient, amount);\n    }\n\n    function allowance(address owner, address spender) public view override returns (uint256) {\n        return _allowances[owner][spender];\n    }\n\n    function approve(address spender, uint256 amount) external override returns (bool) {\n        _approve(msg.sender, spender, amount);\n        return true;\n    }\n\n    function _approve(\n        address owner,\n        address spender,\n        uint256 amount\n    ) internal {\n        require(owner != address(0), \"ERC20: approve from the zero address\");\n        require(spender != address(0), \"ERC20: approve to the zero address\");\n\n        _allowances[owner][spender] = amount;\n        emit Approval(owner, spender, amount);\n    }\n\n    function increaseAllowance(address spender, uint256 addedValue) external returns (bool) {\n        _approve(msg.sender, spender, _allowances[msg.sender][spender].add(addedValue));\n        return true;\n    }\n\n    function decreaseAllowance(address spender, uint256 subtractedValue) external returns (bool) {\n        _approve(\n            msg.sender,\n            spender,\n            _allowances[msg.sender][spender].sub(subtractedValue, \"ERC20: decreased allowance below zero\")\n        );\n        return true;\n    }\n\n    // MINT: Only callable by valuing contract - Now splits fees\n    function mint(\n        address account,\n        uint256 loanAmount,\n        uint256 feeAmount,\n        address LLCAddr\n    ) external virtual {\n        require(account != address(0), \"ERC20: mint to the zero address\");\n        require(msg.sender == _valuator, \"Call does not originate from Valuator\");\n        require(feeAmount > 0, \"UND: Not allowed 0 fee\");\n        \n        // Credits user with their UND loan, minus fees\n        _balances[account] = _balances[account].add(loanAmount.sub(feeAmount));\n        \n        // store total to distribute later\n        storedFee = storedFee.add(feeAmount);\n        \n        // adding total amount of new tokens to totalSupply\n        _totalSupply = _totalSupply.add(loanAmount);\n\n        // crediting loan to user\n        _loaned[account][LLCAddr] = _loaned[account][LLCAddr].add(loanAmount);\n\n        emit Mint(account, loanAmount);\n    }\n\n    // BURN function. Only callable from Valuing.\n    function burn(\n        address account,\n        uint256 toBurn,\n        address LLCAddr\n    ) external virtual {\n        require(account != address(0), \"ERC20: burn from the zero address\");\n        require(msg.sender == _valuator, \"Call does not originate from Valuator\");\n        require(_loaned[account][LLCAddr] > 0, \"You have no loan\");\n\n        // // checks if user has enough UND to cover loan and 0.25% fee\n        // require(_balances[account] >= toBurn, \"Insufficient UND to pay back loan\");\n\n        // removes the amount of UND to burn from _loaned mapping/\n        _loaned[account][LLCAddr] = _loaned[account][LLCAddr].sub(toBurn, \"ERC20: Overflow Trigger\");\n        // Removes loan AND fee from user balance\n        _balances[account] = _balances[account].sub(toBurn, \"ERC20: burn amount exceeds balance\");\n\n        // Removes the loan amount of UND from circulation\n        _totalSupply = _totalSupply.sub(toBurn);\n\n        // This event could be renamed for easier identification.\n        emit Burn(account, toBurn);\n    }\n\n    // Checks how much UND the user has minted (and owes to get liquidity back)\n    function checkLoan(address user, address lockLocation) external view returns (uint256 owed) {\n        owed = _loaned[user][lockLocation];\n    }\n\n    function distributeFee() public returns (bool) {\n        require(storedFee > 0, \"There is nothing to distribute\");\n\n        // amount of fee for safu\n        uint256 stakeShare = storedFee.mul(stakeShares).div(100);\n\n        uint256 remainingShare = storedFee.sub(stakeShare);\n\n        // amount of fee for staking\n        uint256 safuShare = remainingShare.mul(safuSharesOfStoredFee).div(100);\n\n        // send fee to safu\n        _balances[_safuAddr] = _balances[_safuAddr].add(safuShare);\n\n        // send fee to staking\n        _balances[_stakeAddr] = _balances[_stakeAddr].add(stakeShare);\n\n        // send remaining fee to the devfund\n        _balances[_devFundAddr] = _balances[_devFundAddr].add(remainingShare.sub(safuShare));\n\n        // set the fees to zero\n        storedFee = 0;\n\n        return true;\n    }\n\n    // onlyOwner Functions\n\n    // change safuShare\n    function changeSafuShare(uint256 rate) external onlyOwner {\n        require(rate <= 100, \"Too big value for Safu Share\");\n        safuSharesOfStoredFee = rate;\n        emit NewSafuShare(rate);\n    }\n\n    // change stakeShare\n    function changeStakeShare(uint256 rate) external onlyOwner {\n        require(rate <= 100, \"Too big value for Stake share\");\n        stakeShares = rate;\n        emit NewStakeShare(rate);\n    }\n\n    // Changes stakingAddr\n    function changeStaking(address newStaking) external onlyOwner {\n        require(newStaking != address(0), \"Cannot change to 0 address\");\n        _stakeAddr = newStaking;\n        emit NewStaking(newStaking);\n    }\n\n    // Changes safuFund\n    function changeSafuFund(address newSafuFund) external onlyOwner {\n        require(newSafuFund != address(0), \"Cannot change to 0 address\");\n        _safuAddr = newSafuFund;\n        emit NewSafu(newSafuFund);\n    }\n\n    // Changes devFund\n    function changeDevFund(address newDevFund) external onlyOwner {\n        require(newDevFund != address(0), \"Cannot change to 0 address\");\n        _devFundAddr = newDevFund;\n        emit NewDevFund(newDevFund);\n    }\n\n    // Changes Valuator Contract Address\n    function changeValuator(address newValuator) external onlyOwner {\n        require(newValuator != address(0), \"Cannot change to 0 address\");\n        _valuator = newValuator;\n        emit NewValuator(newValuator);\n    }\n\n    // Checks if sender is owner\n    function isOwner() public view returns (bool) {\n        return msg.sender == _owner;\n    }\n\n    // Changes owner (part 1)\n    function setOwner(address _newOwner) external onlyOwner {\n        require(_newOwner != address(0), \"Cannot change to 0 address\");\n        _ownerPending = _newOwner;\n        _isPending = true;\n        emit ChangingAdmin(msg.sender, _newOwner);\n    }\n\n    // changes owner (part 2)\n    function claimOwner() external {\n        require(_isPending, \"Change was not initialized\");\n        require(_ownerPending == msg.sender, \"You are not pending owner\");\n        _owner = _ownerPending;\n        _isPending = false;\n        emit AdminChanged(msg.sender);\n    }\n\n    // Claim - remove any airdropped tokens\n    // currently sends all tokens to \"to\" address (in param)\n    function claimTokens(address _tokenAddr, address to) external onlyOwner {\n        uint256 tokenBal = IERC20(_tokenAddr).balanceOf(address(this));\n        require(IERC20(_tokenAddr).transfer(to, tokenBal), \"UND: misc. Token Transfer Failed\");\n    }\n}\n",
  "sourcePath": "/Users/tomohiro/Documents/Projects/unbound/UnboundContracts/contracts/UnboundTokens/unboundDollar.sol",
  "compiler": {
    "name": "solc",
    "version": "0.7.5+commit.eb77ed08.Emscripten.clang"
  },
  "schemaVersion": "3.3.2",
  "updatedAt": "2021-04-11T20:26:08.405Z",
  "devdoc": {
    "kind": "dev",
    "methods": {
      "allowance(address,address)": {
        "details": "Returns the remaining number of tokens that `spender` will be allowed to spend on behalf of `owner` through {transferFrom}. This is zero by default. This value changes when {approve} or {transferFrom} are called."
      },
      "approve(address,uint256)": {
        "details": "Sets `amount` as the allowance of `spender` over the caller's tokens. Returns a boolean value indicating whether the operation succeeded. IMPORTANT: Beware that changing an allowance with this method brings the risk that someone may use both the old and the new allowance by unfortunate transaction ordering. One possible solution to mitigate this race condition is to first reduce the spender's allowance to 0 and set the desired value afterwards: https://github.com/ethereum/EIPs/issues/20#issuecomment-263524729 Emits an {Approval} event."
      },
      "balanceOf(address)": {
        "details": "Returns the amount of tokens owned by `account`."
      },
      "totalSupply()": {
        "details": "Returns the amount of tokens in existence."
      },
      "transfer(address,uint256)": {
        "details": "Moves `amount` tokens from the caller's account to `recipient`. Returns a boolean value indicating whether the operation succeeded. Emits a {Transfer} event."
      },
      "transferFrom(address,address,uint256)": {
        "details": "Moves `amount` tokens from `sender` to `recipient` using the allowance mechanism. `amount` is then deducted from the caller's allowance. Returns a boolean value indicating whether the operation succeeded. Emits a {Transfer} event."
      }
    },
    "version": 1
  },
  "userdoc": {
    "kind": "user",
    "methods": {},
    "version": 1
  }
}