{
  "contractName": "Valuing_01",
  "abi": [
    {
      "inputs": [
        {
          "internalType": "address",
          "name": "uToken",
          "type": "address"
        }
      ],
      "stateMutability": "nonpayable",
      "type": "constructor"
    },
    {
      "inputs": [],
      "name": "rateBalance",
      "outputs": [
        {
          "internalType": "uint256",
          "name": "",
          "type": "uint256"
        }
      ],
      "stateMutability": "view",
      "type": "function",
      "constant": true
    },
    {
      "inputs": [
        {
          "internalType": "uint256",
          "name": "amount",
          "type": "uint256"
        },
        {
          "internalType": "address",
          "name": "user",
          "type": "address"
        },
        {
          "internalType": "address",
          "name": "token",
          "type": "address"
        },
        {
          "internalType": "uint256",
          "name": "minTokenAmount",
          "type": "uint256"
        }
      ],
      "name": "unboundCreate",
      "outputs": [],
      "stateMutability": "nonpayable",
      "type": "function"
    },
    {
      "inputs": [
        {
          "internalType": "uint256",
          "name": "toUnlock",
          "type": "uint256"
        },
        {
          "internalType": "uint256",
          "name": "totalLocked",
          "type": "uint256"
        },
        {
          "internalType": "address",
          "name": "user",
          "type": "address"
        },
        {
          "internalType": "address",
          "name": "token",
          "type": "address"
        }
      ],
      "name": "unboundRemove",
      "outputs": [],
      "stateMutability": "nonpayable",
      "type": "function"
    },
    {
      "inputs": [
        {
          "internalType": "address",
          "name": "LLC",
          "type": "address"
        }
      ],
      "name": "getLLCStruct",
      "outputs": [
        {
          "internalType": "uint256",
          "name": "fee",
          "type": "uint256"
        },
        {
          "internalType": "uint256",
          "name": "loanrate",
          "type": "uint256"
        }
      ],
      "stateMutability": "view",
      "type": "function",
      "constant": true
    },
    {
      "inputs": [
        {
          "internalType": "address",
          "name": "uToken",
          "type": "address"
        }
      ],
      "name": "allowToken",
      "outputs": [],
      "stateMutability": "nonpayable",
      "type": "function"
    },
    {
      "inputs": [
        {
          "internalType": "address",
          "name": "LLC",
          "type": "address"
        },
        {
          "internalType": "uint256",
          "name": "loan",
          "type": "uint256"
        },
        {
          "internalType": "uint256",
          "name": "fee",
          "type": "uint256"
        }
      ],
      "name": "addLLC",
      "outputs": [],
      "stateMutability": "nonpayable",
      "type": "function"
    },
    {
      "inputs": [
        {
          "internalType": "address",
          "name": "LLC",
          "type": "address"
        },
        {
          "internalType": "uint256",
          "name": "loan",
          "type": "uint256"
        }
      ],
      "name": "changeLoanRate",
      "outputs": [],
      "stateMutability": "nonpayable",
      "type": "function"
    },
    {
      "inputs": [
        {
          "internalType": "address",
          "name": "LLC",
          "type": "address"
        },
        {
          "internalType": "uint256",
          "name": "fee",
          "type": "uint256"
        }
      ],
      "name": "changeFeeRate",
      "outputs": [],
      "stateMutability": "nonpayable",
      "type": "function"
    },
    {
      "inputs": [
        {
          "internalType": "address",
          "name": "LLC",
          "type": "address"
        }
      ],
      "name": "disableLLC",
      "outputs": [],
      "stateMutability": "nonpayable",
      "type": "function"
    },
    {
      "inputs": [],
      "name": "isOwner",
      "outputs": [
        {
          "internalType": "bool",
          "name": "",
          "type": "bool"
        }
      ],
      "stateMutability": "view",
      "type": "function",
      "constant": true
    },
    {
      "inputs": [
        {
          "internalType": "address",
          "name": "_newOwner",
          "type": "address"
        }
      ],
      "name": "setOwner",
      "outputs": [],
      "stateMutability": "nonpayable",
      "type": "function"
    }
  ],
  "bytecode": "0x608060405234801561001057600080fd5b50604051610c33380380610c338339818101604052602081101561003357600080fd5b50516001600160a01b03166000908152600260205260408120805460ff1916600117905580546001600160a01b03191633179055610bbd806100766000396000f3fe608060405234801561001057600080fd5b50600436106100a95760003560e01c80638f32d59b116100715780638f32d59b14610188578063b53472ef146101a4578063b728717a146101ca578063d077e730146101f0578063d79d770f1461022c578063d9a5842214610258576100a9565b806313af4035146100ae578063143100a1146100d657806322d1e17c14610108578063613d1bb5146101225780638172ec561461015c575b600080fd5b6100d4600480360360208110156100c457600080fd5b50356001600160a01b0316610297565b005b6100d4600480360360608110156100ec57600080fd5b506001600160a01b038135169060208101359060400135610300565b61011061037d565b60408051918252519081900360200190f35b6100d46004803603608081101561013857600080fd5b508035906020810135906001600160a01b0360408201358116916060013516610384565b6100d46004803603604081101561017257600080fd5b506001600160a01b038135169060200135610568565b6101906105cf565b604080519115158252519081900360200190f35b6100d4600480360360208110156101ba57600080fd5b50356001600160a01b03166105e0565b6100d4600480360360208110156101e057600080fd5b50356001600160a01b031661064b565b6100d46004803603608081101561020657600080fd5b508035906001600160a01b036020820135811691604081013590911690606001356106c2565b6100d46004803603604081101561024257600080fd5b506001600160a01b03813516906020013561097f565b61027e6004803603602081101561026e57600080fd5b50356001600160a01b03166109e2565b6040805192835260208301919091528051918290030190f35b61029f6105cf565b6102de576040805162461bcd60e51b81526020600482018190526024820152600080516020610b68833981519152604482015290519081900360640190fd5b600080546001600160a01b0319166001600160a01b0392909216919091179055565b6103086105cf565b610347576040805162461bcd60e51b81526020600482018190526024820152600080516020610b68833981519152604482015290519081900360640190fd5b6001600160a01b03909216600090815260016020819052604090912080820192909255918155600201805460ff19169091179055565b620f424081565b3360009081526001602052604090206002015460ff166103e0576040805162461bcd60e51b8152602060048201526012602482015271131310c81b9bdd08185d5d1a1bdc9a5e995960721b604482015290519081900360640190fd5b6001600160a01b03811660009081526002602052604090205460ff16610448576040805162461bcd60e51b81526020600482015260186024820152771a5b9d985b1a59081d5b989bdd5b990818dbdb9d1c9858dd60421b604482015290519081900360640190fd5b6040805162d5a77160e41b81526001600160a01b0384811660048301523360248301529151839260009290841691630d5a771091604480820192602092909190829003018186803b15801561049c57600080fd5b505afa1580156104b0573d6000803e3d6000fd5b505050506040513d60208110156104c657600080fd5b5051905060006104ec866104e0848a63ffffffff610a0516565b9063ffffffff610a6716565b604080516348252a0f60e11b81526001600160a01b0388811660048301526024820184905233604483015291519293509085169163904a541e9160648082019260009290919082900301818387803b15801561054757600080fd5b505af115801561055b573d6000803e3d6000fd5b5050505050505050505050565b6105706105cf565b6105af576040805162461bcd60e51b81526020600482018190526024820152600080516020610b68833981519152604482015290519081900360640190fd5b6001600160a01b0390911660009081526001602081905260409091200155565b6000546001600160a01b0316331490565b6105e86105cf565b610627576040805162461bcd60e51b81526020600482018190526024820152600080516020610b68833981519152604482015290519081900360640190fd5b6001600160a01b03166000908152600260205260409020805460ff19166001179055565b6106536105cf565b610692576040805162461bcd60e51b81526020600482018190526024820152600080516020610b68833981519152604482015290519081900360640190fd5b6001600160a01b03166000908152600160208190526040822082815590810191909155600201805460ff19169055565b60008411610710576040805162461bcd60e51b815260206004820152601660248201527543616e6e6f742076616c75617465206e6f7468696e6760501b604482015290519081900360640190fd5b3360009081526001602052604090206002015460ff1661076c576040805162461bcd60e51b8152602060048201526012602482015271131310c81b9bdd08185d5d1a1bdc9a5e995960721b604482015290519081900360640190fd5b6001600160a01b03821660009081526002602052604090205460ff166107d4576040805162461bcd60e51b81526020600482015260186024820152771a5b9d985b1a59081d5b989bdd5b990818dbdb9d1c9858dd60421b604482015290519081900360640190fd5b3360009081526001602081905260409091200154829085901561086857336000908152600160208190526040909120015461081f90620f4240906104e090899063ffffffff610a0516565b905060008111610868576040805162461bcd60e51b815260206004820152600f60248201526e1d985b1d59481d1bdbc81cdb585b1b608a1b604482015290519081900360640190fd5b33600090815260016020526040812054156109195733600090815260016020526040902054620f4240906108a390849063ffffffff610a0516565b10156108ec576040805162461bcd60e51b8152602060048201526013602482015272185b5bdd5b9d081a5cc81d1bdbc81cdb585b1b606a1b604482015290519081900360640190fd5b3360009081526001602052604090205461091690620f4240906104e090859063ffffffff610a0516565b90505b60408051636501be7760e01b81526001600160a01b038881166004830152602482018590526044820184905233606483015260848201879052915191851691636501be779160a48082019260009290919082900301818387803b15801561054757600080fd5b6109876105cf565b6109c6576040805162461bcd60e51b81526020600482018190526024820152600080516020610b68833981519152604482015290519081900360640190fd5b6001600160a01b03909116600090815260016020526040902055565b6001600160a01b0316600090815260016020819052604090912080549101549091565b600082610a1457506000610a61565b82820282848281610a2157fe5b0414610a5e5760405162461bcd60e51b8152600401808060200182810382526021815260200180610b476021913960400191505060405180910390fd5b90505b92915050565b6000610a5e83836040518060400160405280601a81526020017f536166654d6174683a206469766973696f6e206279207a65726f00000000000081525060008183610b305760405162461bcd60e51b81526004018080602001828103825283818151815260200191508051906020019080838360005b83811015610af5578181015183820152602001610add565b50505050905090810190601f168015610b225780820380516001836020036101000a031916815260200191505b509250505060405180910390fd5b506000838581610b3c57fe5b049594505050505056fe536166654d6174683a206d756c7469706c69636174696f6e206f766572666c6f774f776e61626c653a2063616c6c6572206973206e6f7420746865206f776e6572a26469706673582212204bf41fba7cb69248cd334299ecd9ff160e2c3d06ddc3a0a67166b6523631921d64736f6c63430006060033",
  "immutableReferences": {},
  "source": "pragma solidity >=0.4.23 <0.8.0;\n// SPDX-License-Identifier: MIT\n\nimport \"@openzeppelin/contracts/math/SafeMath.sol\";\nimport \"@openzeppelin/contracts/utils/Address.sol\";\n\nimport \"../Interfaces/IUnboundToken.sol\";\n\n\n// ---------------------------------------------------------------------------------------\n//                                   Unbound Valuing Contract\n//         \n//                                     By: Unbound Finance\n// ---------------------------------------------------------------------------------------\n// This contract contains the logic of applying the LTV rate to the baseAsset value of \n// the provided liquidity. The fee to be deducted from the user is also stored here, and \n// passed to the uToken mint function.\n// \n// Each LLC must be registered with this contract, and assigned fee and LTV rates. The user\n// can only call this function via the LLC.\n// ----------------------------------------------------------------------------------------\n\ncontract Valuing_01 {\n    using SafeMath for uint256;\n    using Address for address;\n\n    //Owner Address\n    address _owner;\n\n     // Liquidity Lock Contract structs - contains fee and loan rate\n    struct LiquidityLock {\n        uint256 feeRate; // this will contain the number by obtained by multiplying the rate by 10 ^ 6\n        uint256 loanRate; // i.e. for 50%, this value would be 500000, because 100.mul(500000).div(10**6) will return 50% of the original number\n\n        bool active; // bool that indicates if address is allowed for use.\n    }\n\n    // mapping of Approved LLC Contract structs\n    mapping (address => LiquidityLock) listOfLLC;\n\n    // mapping of Approved unbound token address\n    mapping (address => bool) isUnbound;\n\n    // number of decimals by which to divide fee multiple by.\n    uint256 public constant rateBalance = (10 ** 6);\n\n    // Modifiers\n    modifier onlyOwner() {\n        require(isOwner(), \"Ownable: caller is not the owner\");\n        _;\n    }\n\n    // Constructor\n    constructor (address uToken) public {\n        isUnbound[uToken] = true;\n        _owner = msg.sender;\n    }\n\n    // Token Creation Function - only called from LLC\n    //\n    // receives the total value (in uToken) of the locked liquidity from LLC,\n    // calculates loan amount in uToken using loanRate variable from struct\n    function unboundCreate(uint256 amount, address user, address token, uint256 minTokenAmount) external {\n        require (amount > 0, \"Cannot valuate nothing\");\n        require (listOfLLC[msg.sender].active, \"LLC not authorized\");\n        require (isUnbound[token], \"invalid unbound contract\");\n        \n        IUnboundToken unboundContract = IUnboundToken(token);\n\n        // computes loan amount\n        uint256 loanAmt = amount;\n        if (listOfLLC[msg.sender].loanRate != 0) {\n            loanAmt = amount.mul(listOfLLC[msg.sender].loanRate).div(rateBalance);\n            require (loanAmt > 0, \"value too small\"); \n        } \n\n        // computes fee amount\n        uint256 feeAmt;\n        if (listOfLLC[msg.sender].feeRate != 0) {\n            require(loanAmt.mul(listOfLLC[msg.sender].feeRate) >= rateBalance, \"amount is too small\");\n            feeAmt = loanAmt.mul(listOfLLC[msg.sender].feeRate).div(rateBalance);\n        }\n\n    \n        // calls mint \n        unboundContract._mint(user, loanAmt, feeAmt, msg.sender, minTokenAmount);\n\n    }\n\n    // Loan repayment Intermediary - only called from LLC\n    function unboundRemove(uint256 toUnlock, uint256 totalLocked, address user, address token) external {\n        require (listOfLLC[msg.sender].active, \"LLC not authorized\");\n        require (isUnbound[token], \"invalid unbound contract\");\n\n        // obtains amount of loan user owes (in uToken)\n        IUnboundToken unboundContract = IUnboundToken(token);\n        uint256 userLoaned = unboundContract.checkLoan(user, msg.sender);\n\n        // compute amount of uToken necessary to unlock LPT\n        uint256 toPayInUToken = userLoaned.mul(toUnlock).div(totalLocked);\n        \n        // calls burn\n        unboundContract._burn(user, toPayInUToken, msg.sender);\n        \n    }\n\n    // returns the fee and loanrate variables attached to an LLC\n    function getLLCStruct(address LLC) public view returns (uint256 fee, uint256 loanrate) {\n        fee = listOfLLC[LLC].feeRate;\n        loanrate = listOfLLC[LLC].loanRate;\n    }\n\n    // onlyOwner Functions\n\n    // grant permission for an unbound token to be called\n    function allowToken (address uToken) public onlyOwner {\n        isUnbound[uToken] = true;\n    }\n\n    // grants an LLC permission //\n    function addLLC (address LLC, uint256 loan, uint256 fee) public onlyOwner {\n        \n        // Enter 2500 for 0.25%, 250 for 2.5%, and 25 for 25%.\n        listOfLLC[LLC].loanRate = loan;\n        listOfLLC[LLC].feeRate = fee;\n        listOfLLC[LLC].active = true;\n    }\n\n    // changes loanRate only\n    function changeLoanRate (address LLC, uint256 loan) public onlyOwner {\n        listOfLLC[LLC].loanRate = loan;\n    }\n\n    // changes feeRate only\n    function changeFeeRate (address LLC, uint256 fee) public onlyOwner {\n        listOfLLC[LLC].feeRate = fee;\n    }\n\n    // Disables an LLC:\n    function disableLLC (address LLC) public onlyOwner {\n        listOfLLC[LLC].feeRate = 0;\n        listOfLLC[LLC].loanRate = 0;\n        listOfLLC[LLC].active = false;\n    }\n\n    // Checks if sender is owner\n    function isOwner() public view returns (bool) {\n        return msg.sender == _owner;\n    }\n\n    // Changes owner\n    function setOwner(address _newOwner) public onlyOwner {\n        _owner = _newOwner;\n    }\n\n}",
  "sourcePath": "/Users/tomohiro/Documents/Projects/unbound/UnboundContracts/contracts/Valuators/valuing_01.sol",
  "compiler": {
    "name": "solc",
    "version": "0.6.6+commit.6c089d02.Emscripten.clang"
  },
  "schemaVersion": "3.2.0",
  "updatedAt": "2020-11-05T19:23:02.748Z",
  "networkType": "ethereum",
  "devdoc": {
    "methods": {}
  },
  "userdoc": {
    "methods": {}
  }
}