{
  "contractName": "Valuing_01",
  "abi": [
    {
      "inputs": [],
      "stateMutability": "nonpayable",
      "type": "constructor"
    },
    {
      "anonymous": false,
      "inputs": [
        {
          "indexed": true,
          "internalType": "address",
          "name": "newAdmin",
          "type": "address"
        }
      ],
      "name": "AdminChanged",
      "type": "event"
    },
    {
      "anonymous": false,
      "inputs": [
        {
          "indexed": true,
          "internalType": "address",
          "name": "oldAdmin",
          "type": "address"
        },
        {
          "indexed": true,
          "internalType": "address",
          "name": "newAdmin",
          "type": "address"
        }
      ],
      "name": "ChangingAdmin",
      "type": "event"
    },
    {
      "anonymous": false,
      "inputs": [
        {
          "indexed": true,
          "internalType": "address",
          "name": "LLCAddr",
          "type": "address"
        },
        {
          "indexed": false,
          "internalType": "uint32",
          "name": "newFee",
          "type": "uint32"
        }
      ],
      "name": "FeeChange",
      "type": "event"
    },
    {
      "anonymous": false,
      "inputs": [
        {
          "indexed": true,
          "internalType": "address",
          "name": "LLCAddr",
          "type": "address"
        }
      ],
      "name": "LLCDisable",
      "type": "event"
    },
    {
      "anonymous": false,
      "inputs": [
        {
          "indexed": true,
          "internalType": "address",
          "name": "LLCAddr",
          "type": "address"
        },
        {
          "indexed": false,
          "internalType": "uint32",
          "name": "newLTV",
          "type": "uint32"
        }
      ],
      "name": "LTVChange",
      "type": "event"
    },
    {
      "anonymous": false,
      "inputs": [
        {
          "indexed": true,
          "internalType": "address",
          "name": "LLCAddr",
          "type": "address"
        },
        {
          "indexed": true,
          "internalType": "address",
          "name": "UTokenAddr",
          "type": "address"
        },
        {
          "indexed": false,
          "internalType": "uint32",
          "name": "loanAmt",
          "type": "uint32"
        },
        {
          "indexed": false,
          "internalType": "uint32",
          "name": "feeAmt",
          "type": "uint32"
        }
      ],
      "name": "NewLLC",
      "type": "event"
    },
    {
      "inputs": [],
      "name": "rateBalance",
      "outputs": [
        {
          "internalType": "uint256",
          "name": "",
          "type": "uint256"
        }
      ],
      "stateMutability": "view",
      "type": "function"
    },
    {
      "inputs": [
        {
          "internalType": "uint256",
          "name": "amount",
          "type": "uint256"
        },
        {
          "internalType": "address",
          "name": "user",
          "type": "address"
        },
        {
          "internalType": "uint256",
          "name": "minTokenAmount",
          "type": "uint256"
        }
      ],
      "name": "unboundCreate",
      "outputs": [],
      "stateMutability": "nonpayable",
      "type": "function"
    },
    {
      "inputs": [
        {
          "internalType": "uint256",
          "name": "toUnlock",
          "type": "uint256"
        },
        {
          "internalType": "address",
          "name": "user",
          "type": "address"
        }
      ],
      "name": "unboundRemove",
      "outputs": [],
      "stateMutability": "nonpayable",
      "type": "function"
    },
    {
      "inputs": [
        {
          "internalType": "address",
          "name": "LLC",
          "type": "address"
        }
      ],
      "name": "getLLCStruct",
      "outputs": [
        {
          "internalType": "uint32",
          "name": "fee",
          "type": "uint32"
        },
        {
          "internalType": "uint32",
          "name": "loanrate",
          "type": "uint32"
        }
      ],
      "stateMutability": "view",
      "type": "function"
    },
    {
      "inputs": [
        {
          "internalType": "address",
          "name": "LLC",
          "type": "address"
        },
        {
          "internalType": "address",
          "name": "uToken",
          "type": "address"
        },
        {
          "internalType": "uint32",
          "name": "loan",
          "type": "uint32"
        },
        {
          "internalType": "uint32",
          "name": "fee",
          "type": "uint32"
        }
      ],
      "name": "addLLC",
      "outputs": [],
      "stateMutability": "nonpayable",
      "type": "function"
    },
    {
      "inputs": [
        {
          "internalType": "address",
          "name": "LLC",
          "type": "address"
        },
        {
          "internalType": "uint32",
          "name": "loan",
          "type": "uint32"
        }
      ],
      "name": "changeLoanRate",
      "outputs": [],
      "stateMutability": "nonpayable",
      "type": "function"
    },
    {
      "inputs": [
        {
          "internalType": "address",
          "name": "LLC",
          "type": "address"
        },
        {
          "internalType": "uint32",
          "name": "fee",
          "type": "uint32"
        }
      ],
      "name": "changeFeeRate",
      "outputs": [],
      "stateMutability": "nonpayable",
      "type": "function"
    },
    {
      "inputs": [
        {
          "internalType": "address",
          "name": "LLC",
          "type": "address"
        }
      ],
      "name": "disableLLC",
      "outputs": [],
      "stateMutability": "nonpayable",
      "type": "function"
    },
    {
      "inputs": [],
      "name": "isOwner",
      "outputs": [
        {
          "internalType": "bool",
          "name": "",
          "type": "bool"
        }
      ],
      "stateMutability": "view",
      "type": "function"
    },
    {
      "inputs": [
        {
          "internalType": "address",
          "name": "_newOwner",
          "type": "address"
        }
      ],
      "name": "setOwner",
      "outputs": [],
      "stateMutability": "nonpayable",
      "type": "function"
    },
    {
      "inputs": [],
      "name": "claimOwner",
      "outputs": [],
      "stateMutability": "nonpayable",
      "type": "function"
    },
    {
      "inputs": [
        {
          "internalType": "address",
          "name": "_tokenAddr",
          "type": "address"
        },
        {
          "internalType": "address",
          "name": "to",
          "type": "address"
        }
      ],
      "name": "claimTokens",
      "outputs": [],
      "stateMutability": "nonpayable",
      "type": "function"
    }
  ],
  "bytecode": "0x60806040526001805460ff60a01b1916905534801561001d57600080fd5b50600080546001600160a01b03191633179055610f3e8061003f6000396000f3fe608060405234801561001057600080fd5b50600436106100b45760003560e01c80638f32d59b116100715780638f32d59b14610195578063b728717a146101b1578063cb77d93c146101d7578063d9a5842214610203578063da4e4a1114610252578063eb0d760214610284576100b4565b806313af4035146100b957806322d1e17c146100e15780633b4c7a84146100fb5780633bd1adec1461012d57806369ffa08a146101355780638119b98814610163575b600080fd5b6100df600480360360208110156100cf57600080fd5b50356001600160a01b03166102c8565b005b6100e9610369565b60408051918252519081900360200190f35b6100df6004803603604081101561011157600080fd5b5080356001600160a01b0316906020013563ffffffff16610370565b6100df61042c565b6100df6004803603604081101561014b57600080fd5b506001600160a01b038135811691602001351661053e565b6100df6004803603604081101561017957600080fd5b5080356001600160a01b0316906020013563ffffffff166106c2565b61019d610770565b604080519115158252519081900360200190f35b6100df600480360360208110156101c757600080fd5b50356001600160a01b0316610781565b6100df600480360360408110156101ed57600080fd5b50803590602001356001600160a01b031661081e565b6102296004803603602081101561021957600080fd5b50356001600160a01b0316610909565b604051808363ffffffff1681526020018263ffffffff1681526020019250505060405180910390f35b6100df6004803603606081101561026857600080fd5b508035906001600160a01b036020820135169060400135610937565b6100df6004803603608081101561029a57600080fd5b506001600160a01b03813581169160208101359091169063ffffffff60408201358116916060013516610c28565b6102d0610770565b61030f576040805162461bcd60e51b81526020600482018190526024820152600080516020610ec6833981519152604482015290519081900360640190fd5b6001805460ff60a01b196001600160a01b0384166001600160a01b0319909216821716600160a01b1790915560405133907f94e450f29e5604cdd3f28d7f798cceba84c415897226a242583aced8368a6d3890600090a350565b620f424081565b610378610770565b6103b7576040805162461bcd60e51b81526020600482018190526024820152600080516020610ec6833981519152604482015290519081900360640190fd5b6001600160a01b038216600081815260026020908152604091829020805467ffffffff00000000191664010000000063ffffffff871690810291909117909155825190815291517fd9ab0c6b68419cb27d5350af47930d2b5d37efb49eafb06dfd7937fd63b5d2909281900390910190a25050565b600154600160a01b900460ff1661048a576040805162461bcd60e51b815260206004820152601a60248201527f4368616e676520776173206e6f7420696e697469616c697a6564000000000000604482015290519081900360640190fd5b6001546001600160a01b031633146104e9576040805162461bcd60e51b815260206004820152601960248201527f596f7520617265206e6f742070656e64696e67206f776e657200000000000000604482015290519081900360640190fd5b60018054600080546001600160a01b0319166001600160a01b03831617815560ff60a01b1990911690915560405133917f7ce7ec0b50378fb6c0186ffb5f48325f6593fcb4ca4386f21861af3129188f5c91a2565b610546610770565b610585576040805162461bcd60e51b81526020600482018190526024820152600080516020610ec6833981519152604482015290519081900360640190fd5b6000826001600160a01b03166370a08231306040518263ffffffff1660e01b815260040180826001600160a01b0316815260200191505060206040518083038186803b1580156105d457600080fd5b505afa1580156105e8573d6000803e3d6000fd5b505050506040513d60208110156105fe57600080fd5b50516040805163a9059cbb60e01b81526001600160a01b0385811660048301526024820184905291519293509085169163a9059cbb916044808201926020929091908290030181600087803b15801561065657600080fd5b505af115801561066a573d6000803e3d6000fd5b505050506040513d602081101561068057600080fd5b50516106bd5760405162461bcd60e51b8152600401808060200182810382526024815260200180610e816024913960400191505060405180910390fd5b505050565b6106ca610770565b610709576040805162461bcd60e51b81526020600482018190526024820152600080516020610ec6833981519152604482015290519081900360640190fd5b6001600160a01b038216600081815260026020908152604091829020805463ffffffff191663ffffffff8616908117909155825190815291517fe8289b79fc4814c40c75d0dcd170f64dafb392129a61de8df52b5fe11e1101969281900390910190a25050565b6000546001600160a01b0316331490565b610789610770565b6107c8576040805162461bcd60e51b81526020600482018190526024820152600080516020610ec6833981519152604482015290519081900360640190fd5b6001600160a01b038116600081815260026020526040808220805467ffffffffffffffff60ff60e01b0119169055517fbcf7ca1790f439cf2bd1c3eb437c64553f610998e06297a4a32db05be4d914529190a250565b33600090815260026020526040902054600160e01b900460ff1661087e576040805162461bcd60e51b8152602060048201526012602482015271131310c81b9bdd08185d5d1a1bdc9a5e995960721b604482015290519081900360640190fd5b3360008181526002602052604080822054815163b8ce670d60e01b81526001600160a01b0386811660048301526024820188905260448201959095529151600160401b90910490931692839263b8ce670d926064808201939182900301818387803b1580156108ec57600080fd5b505af1158015610900573d6000803e3d6000fd5b50505050505050565b6001600160a01b031660009081526002602052604090205463ffffffff808216926401000000009092041690565b60008311610985576040805162461bcd60e51b815260206004820152601660248201527543616e6e6f742076616c75617465206e6f7468696e6760501b604482015290519081900360640190fd5b33600090815260026020526040902054600160e01b900460ff166109e5576040805162461bcd60e51b8152602060048201526012602482015271131310c81b9bdd08185d5d1a1bdc9a5e995960721b604482015290519081900360640190fd5b336000908152600260205260409020546001600160a01b03600160401b820416908490640100000000900463ffffffff1615610aae5733600090815260026020526040902054610a5790620f424090610a5190889063ffffffff640100000000909104811690610d2a16565b90610d8c565b905060008111610aae576040805162461bcd60e51b815260206004820152601860248201527f43616e6e6f74206d696e742030206c6f616e2076616c75650000000000000000604482015290519081900360640190fd5b3360009081526002602052604081205463ffffffff1615610b615733600090815260026020526040902054620f424090610af390849063ffffffff90811690610d2a16565b1015610b305760405162461bcd60e51b8152600401808060200182810382526023815260200180610ee66023913960400191505060405180910390fd5b33600090815260026020526040902054610b5e90620f424090610a5190859063ffffffff90811690610d2a16565b90505b610b6b8282610df3565b841115610ba95760405162461bcd60e51b8152600401808060200182810382526030815260200180610e516030913960400191505060405180910390fd5b60408051637ba5ff4760e11b81526001600160a01b038781166004830152602482018590526044820184905233606483015291519185169163f74bfe8e9160848082019260009290919082900301818387803b158015610c0857600080fd5b505af1158015610c1c573d6000803e3d6000fd5b50505050505050505050565b610c30610770565b610c6f576040805162461bcd60e51b81526020600482018190526024820152600080516020610ec6833981519152604482015290519081900360640190fd5b6001600160a01b038481166000818152600260209081526040918290208054600160e01b68010000000000000000600160e01b0319909116600160401b968a169687021767ffffffff00000000191664010000000063ffffffff8a81169182029290921763ffffffff191691891691821760ff60e01b19169290921790925583519081529182015281517f74dbee6140ce7812c2172f302562553672d6beb1977bf8e09cf9a5e1d05364dc929181900390910190a350505050565b600082610d3957506000610d86565b82820282848281610d4657fe5b0414610d835760405162461bcd60e51b8152600401808060200182810382526021815260200180610ea56021913960400191505060405180910390fd5b90505b92915050565b6000808211610de2576040805162461bcd60e51b815260206004820152601a60248201527f536166654d6174683a206469766973696f6e206279207a65726f000000000000604482015290519081900360640190fd5b818381610deb57fe5b049392505050565b600082821115610e4a576040805162461bcd60e51b815260206004820152601e60248201527f536166654d6174683a207375627472616374696f6e206f766572666c6f770000604482015290519081900360640190fd5b5090039056fe56616c75696e673a206d696e74696e67206c65737320746f6b656e73207468616e206d696e696d756d20616d6f756e7456616c75696e673a206d6973632e20546f6b656e205472616e73666572204661696c6564536166654d6174683a206d756c7469706c69636174696f6e206f766572666c6f774f776e61626c653a2063616c6c6572206973206e6f7420746865206f776e6572546f6f20736d616c6c206c6f616e2076616c756520746f207061792074686520666565a26469706673582212207a495fb6b225809eceb9eb584292855ab0a3b0a77bc8e71c81c321a09467bec564736f6c63430007050033",
  "immutableReferences": {},
  "source": "// SPDX-License-Identifier: UNLICENSED\npragma solidity 0.7.5;\n\nimport \"@openzeppelin/contracts/math/SafeMath.sol\";\nimport \"@openzeppelin/contracts/utils/Address.sol\";\nimport \"@openzeppelin/contracts/token/ERC20/IERC20.sol\";\n\nimport \"../Interfaces/IUnboundToken.sol\";\n\n// ---------------------------------------------------------------------------------------\n//                                   Unbound Valuing Contract\n//\n//                                     By: Unbound Finance\n// ---------------------------------------------------------------------------------------\n// This contract contains the logic of applying the LTV rate to the baseAsset value of\n// the provided liquidity. The fee to be deducted from the user is also stored here, and\n// passed to the uToken mint function.\n//\n// Each LLC must be registered with this contract, and assigned fee and LTV rates. The user\n// can only call this function via the LLC.\n// ----------------------------------------------------------------------------------------\n\ncontract Valuing_01 {\n    using SafeMath for uint256;\n    using Address for address;\n\n    // Admin Change in-prog\n    event ChangingAdmin(address indexed oldAdmin, address indexed newAdmin);\n\n    // Admin Changed\n    event AdminChanged(address indexed newAdmin);\n\n    // Other Admin Events\n    event NewLLC(address indexed LLCAddr, address indexed UTokenAddr, uint32 loanAmt, uint32 feeAmt);\n    event LTVChange(address indexed LLCAddr, uint32 newLTV);\n    event FeeChange(address indexed LLCAddr, uint32 newFee);\n    event LLCDisable(address indexed LLCAddr);\n\n    //Owner Address\n    address private _owner;\n\n    // 2-step owner change variables\n    address private _ownerPending;\n    bool private _isPending = false;\n\n    // Liquidity Lock Contract structs - contains fee and loan rate\n    struct LiquidityLock {\n        uint32 feeRate; // this will contain the number by obtained by multiplying the rate by 10 ^ 6\n        uint32 loanRate; // i.e. for 50%, this value would be 500000, because 100.mul(500000).div(10**6) will return 50% of the original number\n        address uToken; // address of uToken to mint for the specific LLC.\n        bool active; // bool that indicates if address is allowed for use.\n    }\n\n    // mapping of Approved LLC Contract structs\n    mapping(address => LiquidityLock) listOfLLC;\n\n    // number of decimals by which to divide fee multiple by.\n    uint256 public constant rateBalance = (10**6);\n\n    // Modifiers\n    modifier onlyOwner() {\n        require(isOwner(), \"Ownable: caller is not the owner\");\n        _;\n    }\n\n    // Constructor\n    constructor() {\n        _owner = msg.sender;\n    }\n\n    // Token Creation Function - only called from LLC\n    //\n    // receives the total value (in uToken) of the locked liquidity from LLC,\n    // calculates loan amount in uToken using loanRate variable from struct\n    function unboundCreate(\n        uint256 amount,\n        address user,\n        uint256 minTokenAmount\n    ) external {\n        require(amount > 0, \"Cannot valuate nothing\");\n        require(listOfLLC[msg.sender].active, \"LLC not authorized\");\n        \n        IUnboundToken unboundContract = IUnboundToken(listOfLLC[msg.sender].uToken);\n        \n        // computes loan amount\n        uint256 loanAmt = amount;\n        if (listOfLLC[msg.sender].loanRate != 0) {\n            loanAmt = amount.mul(listOfLLC[msg.sender].loanRate).div(rateBalance);\n            require(loanAmt > 0, \"Cannot mint 0 loan value\");\n        }\n        \n        // computes fee amount\n        uint256 feeAmt = 0;\n        if (listOfLLC[msg.sender].feeRate != 0) {\n            require(loanAmt.mul(listOfLLC[msg.sender].feeRate) >= rateBalance, \"Too small loan value to pay the fee\");\n            feeAmt = loanAmt.mul(listOfLLC[msg.sender].feeRate).div(rateBalance);\n        }\n        \n        require(minTokenAmount <= loanAmt.sub(feeAmt), \"Valuing: minting less tokens than minimum amount\");\n        \n        // calls mint\n        unboundContract.mint(user, loanAmt, feeAmt, msg.sender);\n    }\n\n    // Loan repayment Intermediary - only called from LLC\n    function unboundRemove(uint256 toUnlock, address user) external {\n        require(listOfLLC[msg.sender].active, \"LLC not authorized\");\n\n        // obtains amount of loan user owes (in uToken)\n        IUnboundToken unboundContract = IUnboundToken(listOfLLC[msg.sender].uToken);\n\n        // calls burn\n        unboundContract.burn(user, toUnlock, msg.sender);\n    }\n\n    // returns the fee and loanrate variables attached to an LLC\n    function getLLCStruct(address LLC) public view returns (uint32 fee, uint32 loanrate) {\n        fee = listOfLLC[LLC].feeRate;\n        loanrate = listOfLLC[LLC].loanRate;\n    }\n\n    // onlyOwner Functions\n\n    // grants an LLC permission //\n    function addLLC(\n        address LLC,\n        address uToken,\n        uint32 loan,\n        uint32 fee\n    ) external onlyOwner {\n        // add uToken to mint\n        listOfLLC[LLC].uToken = uToken;\n        // Enter 2500 for 0.25%, 25000 for 2.5%, and 250000 for 25%.\n        listOfLLC[LLC].loanRate = loan;\n        listOfLLC[LLC].feeRate = fee;\n        listOfLLC[LLC].active = true;\n        emit NewLLC(LLC, uToken, loan, fee);\n    }\n\n    // changes loanRate only\n    function changeLoanRate(address LLC, uint32 loan) external onlyOwner {\n        listOfLLC[LLC].loanRate = loan;\n        emit LTVChange(LLC, loan);\n    }\n\n    // changes feeRate only\n    function changeFeeRate(address LLC, uint32 fee) external onlyOwner {\n        listOfLLC[LLC].feeRate = fee;\n        emit FeeChange(LLC, fee);\n    }\n\n    // Disables an LLC:\n    function disableLLC(address LLC) external onlyOwner {\n        listOfLLC[LLC].feeRate = 0;\n        listOfLLC[LLC].loanRate = 0;\n        listOfLLC[LLC].active = false;\n        emit LLCDisable(LLC);\n    }\n\n    // Checks if sender is owner\n    function isOwner() public view returns (bool) {\n        return msg.sender == _owner;\n    }\n\n    // Changes owner (part 1)\n    function setOwner(address _newOwner) external onlyOwner {\n        _ownerPending = _newOwner;\n        _isPending = true;\n        emit ChangingAdmin(msg.sender, _newOwner);\n    }\n\n    // changes owner (part 2)\n    function claimOwner() external {\n        require(_isPending, \"Change was not initialized\");\n        require(_ownerPending == msg.sender, \"You are not pending owner\");\n        _owner = _ownerPending;\n        _isPending = false;\n        emit AdminChanged(msg.sender);\n    }\n\n    // Claim - remove any airdropped tokens\n    // currently sends all tokens to \"to\" address (in param)\n    function claimTokens(address _tokenAddr, address to) external onlyOwner {\n        uint256 tokenBal = IERC20(_tokenAddr).balanceOf(address(this));\n        require(IERC20(_tokenAddr).transfer(to, tokenBal), \"Valuing: misc. Token Transfer Failed\");\n    }\n}\n",
  "sourcePath": "/Users/tomohiro/Documents/Projects/unbound/UnboundContracts/contracts/Valuators/valuing_01.sol",
  "compiler": {
    "name": "solc",
    "version": "0.7.5+commit.eb77ed08.Emscripten.clang"
  },
  "schemaVersion": "3.3.2",
  "updatedAt": "2021-04-11T20:26:08.427Z",
  "devdoc": {
    "kind": "dev",
    "methods": {},
    "version": 1
  },
  "userdoc": {
    "kind": "user",
    "methods": {},
    "version": 1
  }
}